:020000040800F2
:10000000D8490020D5180008190500081B0500086C
:100010001F05000823050008270500080000000050
:100020000000000000000000000000002B05000898
:100030002D050008000000002F050008310500080C
:10004000EF180008EF180008EF180008EF18000874
:10005000EF180008EF180008EF180008EF18000864
:10006000EF180008EF180008EF180008EF18000854
:10007000EF180008EF180008EF180008EF18000844
:10008000EF180008EF180008EF180008EF18000834
:10009000EF180008EF180008EF180008EF18000824
:1000A000EF180008EF180008EF180008EF18000814
:1000B000EF180008EF180008EF180008EF18000804
:1000C000EF180008EF180008EF180008EF180008F4
:1000D000EF18000835050008EF180008EF180008B1
:1000E000EF180008EF180008EF18000800000000E3
:1000F0000000000000000000000000000000000000
:100100000000000000000000EF180008EF180008D1
:10011000EF180008EF180008EF180008EF180008A3
:10012000EF180008EF180008EF180008EF18000893
:10013000EF180008EF180008EF180008EF18000883
:10014000EF180008EF180008EF180008EF18000873
:10015000DFF80CD003F08EFB00480047D303000803
:10016000D8490020204B19680868B0E8F00F80F3E8
:100170000988BFF36F8F4FF0000080F311884EF0B5
:100180000D0E70470000000006480068006880F30C
:10019000088862B661B6BFF34F8FBFF36F8F00DF81
:1001A00000BF00BF08ED00E0EFF30980BFF36F8FE1
:1001B0000D4B1A6820E9F00F106008B54FF0BF0032
:1001C00080F3118802F05AFB4FF0000080F3118891
:1001D000BDE8084019680868B0E8F00F80F30988A6
:1001E000BFF36F8F704700BF3C000020EFF311801A
:1001F0004FF0BF0181F31188704780F31188704779
:10020000EFF305807047000008B50020009000BFA4
:100210000023642269469848006801F0D1FEF7E7A0
:1002200008B50120009000BF4FF47A7002F07AFA0E
:1002300000231A4669469048006801F0C8FDBDF8E1
:100240000000401C00B20090EEE710B5044600200C
:100250008A498B4A126888548AA1884803F0E6FAD2
:1002600020B98AA253218DA003F016FB94A18348E4
:1002700003F0DCFA20B985A2572188A003F00CFB1B
:1002800000207F49086040217C4803F0C4FA10BD7B
:1002900000B587B00020ADF80400ADF806004FF4BB
:1002A0000070ADF808000020ADF80A0001A98648EA
:1002B00001F0C4F94FF4E13003900020ADF81000D4
:1002C000ADF81200ADF81400ADF818000C20ADF830
:1002D0001600012240F225517B4801F0D2F903A912
:1002E000794801F036F90121774801F0BEF907B0ED
:1002F00000BD08B54FF40070ADF8000018208DF86F
:10030000030003208DF802006946704800F00EFDDE
:100310004FF48060ADF8000004208DF803006946BA
:100320006A4800F003FD08BD08B500214FF00060E9
:1003300000F087F925208DF8000000208DF80100DD
:100340008DF8020001208DF80300684600F047F99F
:1003500008BD10B500F038FE4FF4803000F05BFEB1
:1003600000F098FE5A49087008460078012820D10C
:10037000002000F002FF002000F011FF4FF4806029
:1003800000F004FF022000F093F9102000F0A4F91F
:10039000012000F0B4FE00BF392000F05FFE00280D
:1003A000FAD0022000F0DBFE00BF00F0E1FE0828DA
:1003B000FBD1012144F2040001F023F810BD10B577
:1003C000FFF7C7FFFFF7B0FFFFF793FFFFF760FFEF
:1003D00010BD1FB5FFF7F3FF3EA003F05DFA2BA29F
:1003E00035212EA003F058FAAFF2A11000231A46CF
:1003F000142100903EA003F0A0F8414908600022BB
:100400000221052001F03BFC1B490860002202216B
:10041000052001F034FC3B49086000200323CDE9AE
:10042000003002900346802237A10390AFF20F20E4
:1004300001F04AFF00200423CDE90030029003467A
:10044000802233A10390AFF23F2001F03DFF02F084
:1004500065FB002004B010BD70B504460D46E1B246
:10046000194801F06FF900BF4021174801F0D8F991
:100470000028F9D0204670BD04000020A400002010
:100480001000002073746172740000002E2E5C5501
:100490007365725C6D61696E2E6300000D0A203D0C
:1004A0003D3D3D3D3D3D3D3D6C696E65203D20251A
:1004B000643D3D3D3D3D3D25733D3D3D3D0D0A00C7
:1004C00073746F70000000000038014000080140A4
:1004D000000000200D0A2057656C636F6D65207465
:1004E0006F202C48656C6C6F205748200D0A000067
:1004F0005265636569766554696D65720000000038
:100500000C000020080000205461736B41000000C3
:100510005461736B42000000704700BFFEE700BFEC
:10052000FEE700BFFEE700BFFEE770477047704779
:100530007047000038B540F22551224801F086F995
:1005400000283DD0002240F225511E4801F099F8C4
:1005500040F225511B4801F0A3F91A4801F0F6F8C2
:10056000C1B2194802680068401C174B1860174850
:10057000815400200346024603210090144800687D
:1005800002F056FE02F0F5FA044600200346224629
:10059000022100900E48006802F04AFE02F0E9FADB
:1005A00004460020034622460121009008480068C6
:1005B00002F03EFE012240F22551024801F061F8AE
:1005C00038BD00000038014010000020A4000020C9
:1005D0000C00002031490143314A1160704770B569
:1005E000002100230F22C47804B32D4C246804F4A6
:1005F000E064C4F5E064210AC1F10403CA40447810
:1006000004FA03F18478144021430901254C06784B
:10061000A155047804F01F050124AC4005786D1144
:10062000AD0005F1E025C5F8004109E0047804F0CB
:100630001F050124AC401C4D0678761145F8264074
:1006400070BD1A4A0A400243154B1B1F1A607047BF
:1006500039B1134A121D12680243114B1B1D1A6057
:1006600006E00F4A121D126882430D4B1B1D1A60D3
:100670007047042808D14FF0E021096941F00401D6
:100680004FF0E022116107E04FF0E021096921F00D
:1006900004014FF0E0221161704700000000FA05EC
:1006A0000CED00E000E400E080E100E080FFFF1FCF
:1006B00001460020FE4A106800F038000843106030
:1006C0007047FB49096821F00801F94A1160114699
:1006D0000968014311607047F549096821F010016C
:1006E000F34A116011460968014311607047F148EF
:1006F000EF494860F04848607047EE48EC49486070
:10070000ED4848607047EA48006940F08000E849D9
:1007100008617047E648006940F08000E4490861DC
:1007200070470420E249C96801F0010109B10120C4
:100730000EE0DF49C96801F0040109B1022007E0B9
:10074000DB49C96801F0100109B1032000E0042071
:10075000704700B502460423FFF7E3FF034603E0BA
:10076000FFF7DFFF0346521E012B01D1002AF7D10C
:1007700002B90523184600BD30B5044604254FF4E0
:100780003020FFF7E6FF0546042D17D1C848006961
:1007900040F00200C649086108464461006940F023
:1007A000400008614FF43020FFF7D3FF0546C048F2
:1007B000006941F6FD710840BD490861284630BD19
:1007C00010B504244FF43020FFF7C3FF0446042C77
:1007D00016D1B748006940F00400B54908610846E1
:1007E000006940F0400008614FF43020FFF7B1FF8E
:1007F0000446AF48006941F6FB710840AC49086106
:10080000204610BD00B502460423FFF78AFF0346C9
:1008100003E0FFF786FF0346521E012B01D1002A99
:10082000F7D102B90523184600BD10B504244FF4D2
:100830003020FFF7E7FF0446042C16D19C480069DE
:1008400040F004009A4908610846006940F0400001
:1008500008614FF43020FFF7D5FF04469448006943
:1008600041F6FB71084092490861204610BD002006
:100870008F49C96901F0020109B1012000E000209F
:10088000704730B5A5250424FFF7F1FF00B100251E
:100890004FF43020FFF75DFF0446042C3AD1854821
:1008A00083498860844888600846006940F02000D9
:1008B00008610846006940F0400008614FF43020AC
:1008C000FFF747FF0446042C1BD17948006941F625
:1008D000DF710840764908610846006940F0100061
:1008E000086176480580E002FFF733FF0446052CD7
:1008F00010D06F48006941F6EF7108406C490861FB
:1009000008E0052C06D06A48006941F6EF710840FE
:1009100067490861204630BD78B506460C46042577
:1009200000200090E802FFF714FF0546042D24D1B3
:100930005F48006940F001005D4908613480E802C9
:10094000FFF707FF0546042D10D1B01C0090200CC6
:1009500000990880E802FFF7FCFE0546544800694C
:1009600041F6FE7108405249086106E050480069AE
:1009700041F6FE7108404E490861284678BD70B5C1
:1009800004460D460426F002FFF7E3FE0646042E59
:1009900011D14748006940F00100454908612580B0
:1009A000F002FFF7D6FE06464148006941F6FE71A7
:1009B00008403F490861304670BD70B505460E4697
:1009C0000424E002FFF7C5FE0446042C17D1394881
:1009D00037498860384888600846006940F0100050
:1009E00008612E80E002FFF7B4FE0446052C06D015
:1009F0002F48006941F6EF7108402D4908612046F3
:100A000070BD2DE9F04304464FF6FF763746B046F9
:100A1000B1460425E443E6B2C4F30727C4F307480C
:100A20004FEA1469E802FFF794FE0546042D49D108
:100A300020481F498860204888600846006940F0C7
:100A400010000861FF2E06D01C4808300680E8021E
:100A5000FFF77FFE0546042D08D1FF2F06D017486B
:100A60000A300780E802FFF774FE0546042D0AD11C
:100A7000B8F1FF0F07D011480C30A0F80080E80251
:100A8000FFF767FE0546042D0AD1B9F1FF0F07D025
:100A90000A480E30A0F80090E802FFF75AFE05461B
:100AA000052D0FD00248006941F6EF71084007E0BC
:100AB0000020024023016745AB89EFCD00F8FF1FFE
:100AC000664908612846BDE8F08330B50546042430
:100AD0004FF43020FFF73DFE0446042C41D160481E
:100AE0005E4988605F4888600846006940F02000E1
:100AF00008610846006940F0400008614FF430206A
:100B0000FFF727FE0446042C22D15448006941F621
:100B1000DF710840514908610846006940F0100043
:100B200008611DB100205049088002E0A5204E490F
:100B300008804FF43020FFF70CFE0446052C10D03F
:100B40004648006941F6EF7108404449086108E0F1
:100B5000052C06D04148006941F6DF7108403F4945
:100B60000861204630BDF0B505460E461746042400
:100B70003B483A4988603B488860E002FFF7E9FD5E
:100B80000446042C19D13548006940F0100033495F
:100B9000086147F0F800304328433349891C088036
:100BA000E002FFF7D6FD0446052C06D02B4800696D
:100BB00041F6EF710840294908612046F0BD2748F9
:100BC000C069800870472548006A704700202349A3
:100BD000096801F0200109B1012000E00020704700
:100BE00029B11E4A126902431C4B1A6104E01B4AD8
:100BF00012698243194B1A6170470146002001298E
:100C000008D1164AD26902F001020AB1012008E0B7
:100C1000002006E0114AD2680A400AB1012000E033
:100C2000002070470D49C860704704200B49C9680F
:100C300001F0010109B101200EE00849C96801F085
:100C4000040109B1022007E00449C96801F010015C
:100C500009B1032000E0042070470000002002409A
:100C600023016745AB89EFCD00F8FF1F10B504469F
:100C7000CC48844208D10121042000F0E9FB002186
:100C8000042000F0E5FB46E0C748844208D101217A
:100C9000082000F0DDFB0021082000F0D9FB3AE03D
:100CA000C248844208D10121102000F0D1FB00216C
:100CB000102000F0CDFB2EE0BD48844208D1012178
:100CC000202000F0C5FB0021202000F0C1FB22E025
:100CD000B848844208D10121402000F0B9FB00212E
:100CE000402000F0B5FB16E0B348844208D1012152
:100CF000802000F0ADFB0021802000F0A9FB0AE07D
:100D0000AE48844207D10121801500F0A1FB0021EB
:100D1000A01500F09DFB10BD10B50121084600F0A4
:100D200097FB0021012000F093FB10BD2DE9F0415D
:100D3000024600250026002000230024002791F809
:100D400003C00CF00F0591F803C00CF0100CBCF1BF
:100D5000000F03D091F802C04CEA050591F800C0DD
:100D6000BCF1000F31D0146800202BE04FF0010CD3
:100D70000CFA00F3B1F800C00CEA03069E4220D141
:100D800083004FF00F0C0CFA03F7BC4305FA03FC89
:100D90004CEA040491F803C0BCF1280F06D14FF0CF
:100DA000010C0CFA00FCC2F814C00AE091F803C070
:100DB000BCF1480F05D14FF0010C0CFA00FCC2F851
:100DC00010C0401C0828D1D31460B1F800C0BCF199
:100DD000FF0F34DD546800202EE000F1080C4FF0C6
:100DE000010808FA0CF3B1F800C00CEA03069E42B1
:100DF00021D183004FF00F0C0CFA03F7BC4305FA26
:100E000003FC4CEA040491F803C0BCF1280F05D19F
:100E100000F1080C08FA0CF8C2F8148091F803C02D
:100E2000BCF1480F07D100F1080C4FF0010808FA97
:100E30000CF8C2F81080401C0828CED35460BDE8DE
:100E4000F0814FF6FF710180022181700421C17091
:100E500070470246002093680B400BB1012000E070
:100E6000002070470146886880B270470246002023
:100E7000D3680B400BB1012000E000207047014611
:100E8000C86880B2704701617047416170470AB11C
:100E9000016100E041617047C16070474FF48032EA
:100EA0000A43826181618261826982697047024678
:100EB0000020434B18684FF68073184040EA021038
:100EC00008433F4B186070473E49C8617047F0B512
:100ED0000A46002300240021002500F00046B6F158
:100EE000004F02D1364EF16901E0354E7168C0F312
:100EF000034583B200F44016B6F5401F08D121F037
:100F000070612F4E766826F070662D4F7E6012E07D
:100F100000F48016B6F5801F06D1032606FA05F404
:100F2000A14341F0706106E0460D360103FA06F672
:100F3000B14341F0706122B1460D360103FA06F665
:100F4000314300F00046B6F1004F02D11C4EF16172
:100F500001E01B4E7160F0BD30B500228B071C0F05
:100F60000F2303FA04F2164B08338C1053F8243085
:100F70009343134C08348D1044F8253023468C10CD
:100F800053F824308C07240F00FA04F423430C4C4C
:100F900008348D1044F8253030BD0A49DC31086032
:100FA0007047000000080140000C014000100140A3
:100FB0000014014000180140001C014000200140C5
:100FC0000000014000002042FB48006840F00100A2
:100FD000F949086008464068F8490840F649486001
:100FE00008460068F6490840F3490860084600686A
:100FF00020F4802008600846406820F4FE00486025
:101000000846006820F0A05008604FF47F00886018
:101010000020C8627047E849096821F48031E64A37
:1010200011601146096821F480211160B0F5803FFC
:1010300003D0B0F5802F0ED106E0DF49096841F4F6
:101040008031DD4A116007E0DB49096841F4A021E5
:10105000D94A116000E000BF00BF704710B50146DB
:101060000022002300204A11012A02D1D24C236819
:1010700006E0022A02D1D04C236A01E0CE4C636A1A
:1010800001F01F02012494401C400CB1012000E03B
:10109000002010BD38B5002000900024002500BFBE
:1010A0003120FFF7DBFF05460098401C00900098B8
:1010B000B0F5A06F01D0002DF2D03120FFF7CEFFA8
:1010C00008B1012400E00024204638BD014600207C
:1010D000B94A106820F0F80040EAC100106070477B
:1010E000B8490860704702460020B34B586820F4A6
:1010F000741042EA01031843AF4B58607047B1497E
:101100000866704702460020AB4BD86AAE4B1840C9
:1011100042EA01031843A84BD862704701460020F9
:10112000A54AD06A20F0F0000843D062704701461B
:101130000020A14AD06A20F470600843D062704752
:10114000A04988667047014600209B4AD06A20F477
:1011500070400843D06270479A490867704701465B
:101160000020954A506820F0030008435060704703
:101170009148406800F00C007047014600208E4AFC
:10118000506820F0F000084350607047014600208E
:10119000894A506820F4E060084350607047014677
:1011A0000020854A506820F4605040EAC100506039
:1011B000704729B1804A527A02437F4B5A7204E049
:1011C0007D4A527A82437C4B5A7270477D49D831AE
:1011D0000860704701460020774A506820F440407C
:1011E0000843506070477949086070477749091D86
:1011F000086070470021704A203211706E4A82F8F0
:101200002010012802D004280AD104E001216A4AF2
:101210002032117005E00521674A2032117000E08C
:1012200000BF00BF70476A49086070476249096A99
:101230000143614A1162704765494439086070474B
:101240002DE9F04100210022002500230026002482
:1012500000278C46DFF86081D8F8048008F00C0184
:1012600021B1042907D0082959D109E0DFF86481A8
:10127000C0F8008058E0DFF86081C0F8008053E0DB
:10128000DFF83481D8F8048008F47012DFF8288180
:10129000D8F8048008F48035920C0D2A01D0921CF5
:1012A00000E0062235B9DFF8348102FB08F8C0F807
:1012B000008033E0DFF80081D8F82C8008F4803615
:1012C000DFF8F480D8F82C8008F00F0808F101044A
:1012D00046B9DFF80481B8FBF4F808FB02F8C0F85F
:1012E00000801BE0DFF8D080D8F82C80C8F303180A
:1012F00008F10107DFF8C080D8F82C80C8F3032874
:1013000008F1020CDFF8D080B8FBF7F808FB0CF806
:10131000B8FBF4F808FB02F8C0F8008004E0DFF83E
:10132000B480C0F8008000BF00BFDFF88C80D8F820
:10133000048008F0F0010909DFF8A48018F80130F2
:10134000D0F8008028FA03F8C0F80480DFF868803D
:10135000D8F8048008F4E061090ADFF8848018F8FE
:101360000130D0F8048028FA03F8C0F80880DFF8CC
:101370004880D8F8048008F46051C90ADFF860801A
:1013800018F80130D0F8048028FA03F8C0F80C806F
:10139000DFF82480D8F8048008F44041890BDFF896
:1013A000448018F80130D0F80C80B8FBF3F8C0F88E
:1013B0001080BDE8F0810000001002400000FFF046
:1013C000FFFFF6FE00004242F0FFFEFFC40542426E
:1013D0008004424200127A0040787D0100093D00FD
:1013E000140000202400002029B1354A526902432C
:1013F000334B5A6104E0324A52698243304B5A619E
:10140000704729B12E4A926902432D4B9A6104E03C
:101410002B4A926982432A4B9A61704729B1284A24
:10142000D2690243264BDA6104E0254AD26982433D
:10143000234BDA61704729B1214A926A0243204B5B
:101440009A6204E01E4A926A82431D4B9A62704778
:1014500029B11B4AD2680243194BDA6004E0184AEA
:10146000D2688243164BDA60704729B1144A126978
:101470000243134B1A6104E0114A12698243104B74
:101480001A6170470F49086070470F49C864704778
:101490000B49C87170470A48406A40F0807008499B
:1014A0004862704701460020054A92680A400AB126
:1014B000012000E000207047014988727047000059
:1014C00000100240400442420000424210B504466F
:1014D000FB48844209D101218803FFF7B9FF0021AD
:1014E0004FF48040FFF7B4FF32E0F648844209D160
:1014F00001214804FFF7B9FF00214FF40030FFF746
:10150000B4FF25E0F048844209D101218804FFF7A7
:10151000ACFF00214FF48020FFF7A7FF18E0EB4855
:10152000844209D10121C804FFF79FFF00214FF435
:101530000020FFF79AFF0BE0E548844208D1012123
:101540000805FFF792FF00214FF48010FFF78DFF91
:1015500010BD2DE9F04786B005460E460024A24690
:1015600000BFA1460027B08900B100BF2F462C8ADA
:101570004CF6FF700440F08804432C82AC894EF690
:10158000F3100440B088318908437189084304434B
:10159000AC81AC8A4FF6FF400440B0890443AC8272
:1015A00001A8FFF74DFEC648874202D1DDF810A022
:1015B00001E0DDF80CA0A88900F4004040B10AEB7E
:1015C000CA0000EB0A1031684900B0FBF1F807E0EF
:1015D0000AEBCA0000EB0A1031688900B0FBF1F891
:1015E0006420B8FBF0F004012009642101FB10899C
:1015F000A88900F4004040B1322000EBC900B0FBE4
:10160000F1F000F00700044308E0322000EB09107D
:101610006421B0FBF1F000F00F0004432C8106B010
:10162000BDE8F0874FF41651016000218180C18030
:1016300001810C21418100218181704710B5024652
:101640000020108A4FF2FF0318400B884C88234378
:101650008C882343CC8823431843108210BD00217B
:10166000018041808180C180704721B1828942F42C
:101670000052828104E082894DF6FF731A40828114
:101680007047F0B50346002400260025002040F6F0
:101690006A17B94200D100BF1846C1F3421401F0E5
:1016A0001F06012707FA06F5012C01D10C3004E0D2
:1016B000022C01D1103000E014301AB107682F431A
:1016C000076002E00768AF430760F0BD1AB1838A84
:1016D0000B43838202E0838A8B4383827047028AB2
:1016E0004FF6F0731A400282028A0A430282704760
:1016F00082894FF2FF731A40828182890A43828174
:10170000704721B1828942F00202828104E082891D
:101710004FF6FD731A4082817047028A4FF6DF73DD
:101720001A400282028A0A430282704721B1028A69
:1017300042F48042028204E0028A4BF6FF731A40B0
:1017400002827047C1F30802828070470146888890
:10175000C0F308007047818941F001018181704721
:10176000028BD2B20283028B42EA012202837047CB
:10177000028B02F47F420283028B0A43028370478A
:1017800021B1828A42F02002828204E0828A4FF6EE
:10179000DF731A408282704721B1828A42F01002C0
:1017A000828204E0828A4FF6EF731A408282704789
:1017B00021B1828A42F00802828204E0828A4FF6D6
:1017C000F7731A408282704721B1828942F4004245
:1017D000828103E08289C2F30E028281704721B1C7
:1017E000828A42F40062828204E0828A4FF2FF73AE
:1017F0001A4082827047828A4FF6FB731A408282B7
:10180000828A0A438282704721B1828A42F00202B0
:10181000828204E0828A4FF6FD731A40828270470A
:1018200002460020B1F5007F00D100BF13880B40B5
:101830000BB1012000E00020704701F40072B2F506
:10184000007F00D100BFCA430280704770B50246D6
:10185000002400230025002040F66A16B14200D182
:1018600000BFC1F3421501F01F03012606FA03F37E
:10187000012D02D19689334006E0022D02D1168A4D
:10188000334001E0968A33400C12012606FA04F434
:101890001688344013B10CB1012000E0002070BD67
:1018A00010B50022002340F66A14A14200D100BF07
:1018B0000A1201249440A3B2DC43048010BD00004E
:1018C000003801400044004000480040004C004007
:1018D000005000400648804706480047FEE7FEE704
:1018E000FEE7FEE7FEE7FEE7FEE7FEE7FEE7FEE7D0
:1018F000091A0008510100080CB500200190009061
:101900009248006840F480309049086000BF8F48DA
:10191000006800F4003000900198401C019000988D
:1019200018B90198B0F5A06FF1D18848006800F4AB
:10193000003010B10120009001E0002000900098DC
:1019400001285CD18248006840F01000804908609E
:101950000846006820F0030008600846006840F070
:101960000200086079484068784948600846406845
:1019700048600846406840F4806048600846C06A95
:10198000744908407149C8620846C06A72490843F0
:101990006E49C8620846006840F08060086000BF79
:1019A0006A48006800F000600028F9D06748406885
:1019B00020F47C10654948600846406840F4E8100F
:1019C00048600846006840F08070086000BF5F48CB
:1019D000006800F000700028F9D05C48406820F0F2
:1019E00003005A4948600846406840F002004860D9
:1019F00000BF5648406800F00C000828F9D10CBD23
:101A000010B5FFF779FF10BD10B55048006840F0E1
:101A100001004E49086008464068504908404B495B
:101A20004860084600684E49084048490860084632
:101A3000006820F4802008600846406820F4FE001A
:101A400048600846006820F0A05008604FF47F000E
:101A500088600020C862FFF7D3FF4FF00060414963
:101A6000086010BDF0B500210020002300240022F2
:101A700000250026354F7F6807F00C0121B10429AD
:101A800008D008294BD10BE0374FDFF8E0C0CCF885
:101A900000704AE0364FDFF8D4C0CCF8007044E064
:101AA0002A4F7F6807F47010284F7F6807F480334F
:101AB000800C0D2801D0801C00E0062033B92D4F8A
:101AC0004743DFF8A8C0CCF8007027E01F4FFF6A3B
:101AD00007F480341D4FFF6A07F00F077A1C44B9E2
:101AE000234FB7FBF2F74743DFF880C0CCF8007014
:101AF00014E0164FFF6AC7F303177D1C134FFF6AEC
:101B0000C7F30327BE1C1A4FB7FBF5F77743B7FBA4
:101B1000F2F74743DFF854C0CCF8007005E0124FED
:101B2000DFF848C0CCF8007000BF00BF074F7F68E7
:101B3000C7F30317DFF840C01CF807100B4F3F68CE
:101B4000CF40DFF828C0CCF80070F0BD0010024094
:101B50000020024000F0FEFF440601000000FFF0FC
:101B6000FFFFF6FE08ED00E000127A0028000020DA
:101B700040787D0100093D002C00002000F10801A3
:101B800041604FF0FF31816000F10801C1600161E7
:101B900000210160704700210161704742684A607E
:101BA00093688B60936859609160086103685B1C5F
:101BB0000360704710B502460B685C1C0CB91069D5
:101BC00007E002F1080000E04068446824689C4295
:101BD000FAD944684C604C68A160886041600A6131
:101BE0001468641C146010BD01460A69D1E9013013
:101BF0009860D1E9010358605068884201D1886833
:101C00005060002008611068401E10601068704726
:101C100070B505460E462C4601F020FDD4E90F12A2
:101C2000206801FB020060600020A0632068A060C3
:101C3000E06B401E226C216800FB0210E0604FF058
:101C4000FF306064A06476B9206908B9012000E023
:101C5000002080B904F1100001F01EF801280AD11B
:101C600001F0F2FC07E004F11000FFF787FF04F138
:101C70002400FFF783FF01F0FEFC012070BD2DE979
:101C8000F04706460D4691464FF000080DB9002773
:101C900002E006FB05F0471C07F14C0001F025FDB2
:101CA000044664B10DB9246002E004F14C002060E8
:101CB000E663256401212046FFF7AAFFA0464046BF
:101CC000BDE8F08710B5044601F0C8FC11E0606A79
:101CD00008B9012000E0002038B904F1240000F028
:101CE000DBFF18B101F06CF800E005E0A06C401ECD
:101CF000A064A06C0028EADC00BF4FF0FF30A064B5
:101D000001F0B9FC01F0AAFC11E0206908B901203A
:101D100000E0002050B904F1100000F0BDFF08B150
:101D200001F04EF8606C401E606400E002E0606C00
:101D30000028EADC00BF4FF0FF30606401F09BFC3C
:101D400010BD70B5054601F089FCA86BE96B8842AF
:101D500001D1012400E0002401F08DFC204670BD7B
:101D60002DE9F04104460E4615460027206C40B38D
:101D70007DB93146226CA06801F034FD216CA06869
:101D80000844A060D4E9011088421AD32068A060FA
:101D900017E03146226CE06801F024FD216CE06818
:101DA000401AE0602168E068884203D2216C6068D4
:101DB000401AE060022D04D1A06B10B1A06B401E50
:101DC000A063A06B401CA0633846BDE8F0812DE9FC
:101DD000FF4383B0074688461D464FF000093C4646
:101DE00000BF01F03BFCA06BE16B884201D3022DE8
:101DF0001DD12A4641462046FFF7B2FF0646606ADB
:101E000008B9012000E0002040B904F1240000F0EE
:101E100043FF012805D101F017FC02E00EB101F0EB
:101E200013FC01F028FC012007B0BDE8F083059801
:101E300018B901F020FC0020F6E7B9F1000F04D139
:101E400001A800F08CFF4FF0010901F014FC00F034
:101E500024FC01F003FC606C401C08B900206064A5
:101E6000A06C401C08B90020A06401F004FC05A986
:101E700001A800F07BFFC0B92046FFF762FF70B1F8
:101E800004F11000059900F07EFE2046FFF71AFFCE
:101E900000F05EFB0028A4D101F0D6FBA1E72046AC
:101EA000FFF710FF00F054FB9BE72046FFF70AFF07
:101EB00000F04EFB0020B7E72DE9F04705468946C4
:101EC00016461F462C46FEF791F98246A06BE16B41
:101ED000884201D3022F1CD13A4649462046FFF7DB
:101EE0003FFFA06C401C70B9606A08B9012000E097
:101EF000002058B904F1240000F0CEFE30B12EB11C
:101F00000120306002E0A06C401CA0644FF001088A
:101F100001E04FF000085046FEF76FF94046BDE87B
:101F2000F0872DE9F04105460E462C46FEF75EF996
:101F30008046A06BE16B884219D2A06B401CA06365
:101F4000A06C401C70B9606A08B9012000E0002054
:101F500058B904F1240000F09FFE30B12EB10120E9
:101F6000306002E0A06C401CA064012700E0002764
:101F70004046FEF742F93846BDE8F08170B50546A7
:101F800001F06CFBA86B08B9012400E0002401F00B
:101F900072FB204670BD70B504460D46206C70B1D2
:101FA000216CE0680844E0606168E068884201D321
:101FB0002068E0602846226CE16801F013FC70BDE7
:101FC0002DE9FF4383B0054688461E464FF00009C1
:101FD0002C4600BF01F042FBA06B58B3E7684146B6
:101FE0002046FFF7D8FF8EB9A06B401EA063206982
:101FF00008B9012000E00020B0B904F1100000F0A1
:102000004BFE012810D101F01FFB0DE0E760606A74
:1020100008B9012000E0002030B904F1240000F0EC
:102020003BFE08B101F010FB01F025FB012007B0D9
:10203000BDE8F083059818B901F01DFB0020F6E714
:10204000B9F1000F04D101A800F089FE4FF0010999
:1020500001F011FB00F021FB01F000FB606C401C63
:1020600008B900206064A06C401C08B90020A0647E
:1020700001F001FB05A901A800F078FEC0B92046D7
:10208000FFF77CFF70B104F12400059900F07BFD9F
:102090002046FFF717FE00F05BFA00289AD101F006
:1020A000D3FA97E72046FFF70DFE00F051FA91E7CB
:1020B0002046FFF707FE00F04BFA0020B7E72DE9B6
:1020C000F0470546884616462C46FEF78FF88146AF
:1020D000A06BE8B141462046FFF75DFFA06B401EB4
:1020E000A063606C401C70B9206908B9012000E051
:1020F000002058B904F1100000F0CEFD30B12EB12F
:102100000120306002E0606C401C6064012700E048
:1021100000274846FEF771F83846BDE8F0872DE9FC
:10212000F047054688462C46FEF760F88146A06BCE
:1021300038B1E76841462046FFF72DFFE7600126EA
:1021400000E000264846FEF758F83046BDE8F08724
:1021500070B5044601F082FAA56B01F08CFA2846AE
:1021600070BD70B50446254601F078FAD5E90E1029
:10217000461A01F080FA304670BD0146886B704700
:1021800070B504462546284601F002FB70BD0146A5
:102190008A6B0AB9012000E00020704701468A6B73
:1021A000CB6B9A4201D1012000E0002070472DE95D
:1021B000F04105460E4617462C4601F04FFA606C7A
:1021C000401C08B900206064A06C401C08B90020C5
:1021D000A06401F050FAA06B28B93A46314604F1E8
:1021E000240000F02CFD2046FFF76CFDBDE8F081D7
:1021F00010B5002407E004EB8401F74A02EB8100EC
:10220000FFF7BCFC641C052CF5D3F448FFF7B6FCC3
:10221000F348FFF7B3FCF348FFF7B0FCF248FFF7D1
:10222000ADFCF248FFF7AAFCEC48F1490860EC4825
:10223000F049086010BD2DE9F04704460F461646E8
:102240009946DDF82080002507E0795D04F134002F
:102250004155785D00B902E06D1C102DF5D300BF2B
:10226000002143200155052E00D30426E662201DDF
:10227000FFF791FC04F11800FFF78DFC2461C6F113
:102280000500A06164620020606484F84800BDE835
:10229000F0872DE9F04106460F461FB9B00001F066
:1022A00024FA00E03846054655B14C2001F01DFAED
:1022B00004460CB1256304E0284601F069FA00E009
:1022C00000242046BDE8F0812DE9FF4F81B0804613
:1022D00015469946DDE90E7A28461099FFF7D9FF91
:1022E0000446002C4FD0681E216B01EB800B2BF0B5
:1022F000070B00953A462046119B0299FFF79BFF7A
:102300004A464146584601F075F92060BAF1000F7F
:1023100001D0CAF8004001F0A1F9B7480068401C9C
:10232000B5490860B548006840B9B448046008463B
:10233000006801280CD1FFF75BFF09E0B048006896
:1023400030B9AE480068C06AB84201D8AB480460F2
:10235000AC480068401CAB49086094F82C10012080
:102360008840A94909680843A7490860E16A01EB68
:102370008101994A02EB8100211DFFF70FFC012624
:1023800001F079F901E04FF0FF36012E09D19C48A8
:10239000006830B199480068C06AB84201D201F0C3
:1023A00053F9304605B0BDE8F08F914909680968D6
:1023B00009B9012100E0002121B14FF0FF31934A1A
:1023C000116006E08A490968C968C8688F4A41688F
:1023D0001160704770B5054601F040F915B987489E
:1023E000006800E028460446201DFFF7FDFB78B991
:1023F000E06A00EB8000784951F8200040B994F879
:102400002C10012088408049096881437E48016082
:10241000A06A18B104F11800FFF7E6FB211D72480D
:10242000FFF7BCFB7A480068401C79490860754892
:102430000068401C7349086001F01DF9704800688D
:1024400060B16E480068844202D101F0FDF805E0F9
:1024500001F004F9FFF7A9FF01F00DF970BD2DE9B6
:10246000F04100276B480068002865D16A48006881
:10247000401C69490860084606688EB95C48D0F877
:1024800000805C4800685A4908605A48C0F80080DB
:1024900062480068401C61490860FFF786FF00BF82
:1024A0005A48006886423BD300BF51480068006824
:1024B00008B9012000E0002020B14FF0FF3053495F
:1024C00008602CE04A480068C068C4686568AE428D
:1024D00002D24E48056022E0201DFFF785FBA06A6E
:1024E00018B104F11800FFF77FFB94F82C100120BD
:1024F000884045490968084343490860E16A01EB9F
:102500008101354A02EB8100211DFFF747FB3B4962
:10251000E06A0968C96A8842C7D30127C5E700BFD6
:1025200036480068C06A00EB80002B4951F8200053
:10253000012806D9012704E039480068401C3849C1
:1025400008603848006800B101273846BDE8F081CE
:1025500070B5002501F082F82E480068401E2D4914
:10256000086008460068002874D1234800680028E5
:1025700070D024E01B48C068C46804F11800FFF75D
:1025800033FB201DFFF730FB94F82C10012088400E
:102590001D49096808431C490860E16A01EB810193
:1025A0000D4A02EB8100211DFFF7F8FA1349E06A9A
:1025B0000968C96A884202D301201A49086009489B
:1025C000006808B9012000E000200028D2D014489B
:1025D000006800B133E036E0E4000020480100204C
:1025E0005C0100207001002084010020980100207F
:1025F00040000020440000204C0000203C0000204F
:102600005800002068000020540000206C000020CA
:1026100048000020700000205000002064000020CE
:102620005C00002060000020FFF719FF10B10120BE
:10263000FE490860FE480068401EFD490860FC48ED
:1026400000680028F0D1F9480068012802D101256E
:1026500000F0FAFF01F00FF8284670BD10B50446EF
:10266000F44800684460F4480068844207D2F148A6
:102670000168091DF1480068FFF79CFA0CE0ED487D
:102680000168091DEE480068FFF794FAED480068FC
:10269000844201D2EB48046010BDEB480068401C46
:1026A000E949086070472DE9F047044688464FF035
:1026B0000009FFF7F2FFE0480768206800EB080513
:1026C0002068B84207D92068A8420BD9BD4209D971
:1026D0004FF0010906E02068A84201D8BD4201D9A7
:1026E0004FF001092560B9F1000F13D0D1480068FF
:1026F000001DFFF779FA50B9CE48006890F82C1009
:1027000001208840D14909688143D04801602846AA
:10271000FFF7A4FFFFF71CFF06460EB900F094FF79
:10272000BDE8F08770B504460026DCB1FFF7B5FFC1
:10273000C14800680519BF480068001DFFF754FA3A
:1027400050B9BC48006890F82C1001208840BF495F
:1027500009688143BD4801602846FFF77FFFFFF706
:10276000F7FE06460EB900F06FFF70BD70B5044667
:1027700000F074FF14B9AF48006800E02046064638
:10278000F56A00F078FF284670BD2DE9F041044657
:10279000FDF72CFD064614B9A648006800E0204667
:1027A0000746FD6A3046FDF728FD2846BDE8F08162
:1027B0002DE9F04780460D464FF00009052D00D366
:1027C000042500F04BFFB8F1000F02D199480068D2
:1027D00000E040460446E66AAE424BD0B5420BD913
:1027E0009448006884420DD092480068C06AA842AC
:1027F00008D84FF0010905E08E480068844201D1F5
:102800004FF00109E76AE562A06900F0004010B9E5
:10281000C5F10500A06107EB87018D4A02EB81013C
:102820006069884201D1012000E00020E0B1201D54
:10283000FFF7DAF930B90120B840844909688143CB
:102840008248016094F82C10012088407F49096873
:1028500008437E490860E16A01EB81017C4A02EB92
:102860008100211DFFF79AF9B9F1010F01D100F0A4
:10287000EBFE00BF00F0FFFEBDE8F0877248006885
:1028800018B10120694908601DE00020674908600F
:102890006E480068B0FA80F0C0F11F0101EB8102C0
:1028A0006B4B03EB820042685268426000F1080201
:1028B0004368934202D14268526842604268D268DB
:1028C0005C4B1A6000BF704770B5054600F0C6FE4D
:1028D00015B95848006800E028460446201DFFF757
:1028E00083F978B9E06A00EB8000594951F820007B
:1028F00040B994F82C10012088405449096881435C
:1029000052480160A06A18B104F11800FFF76CF991
:10291000211D5048FFF742F900F0ADFE4548006820
:10292000844212D14C48006810B100F08DFE15E0D1
:102930004848006849490968884203D100203D4958
:1029400008600BE0FFF79AFF08E04348006828B1F1
:1029500000F084FEFFF729FD00F08DFE70BD10B57C
:10296000014600200A463B4C5369A34201D1012392
:1029700000E0002373B13A4C936AA34201D10123D2
:1029800000E0002333B9936A0BB9012300E0002370
:1029900003B1012010BD70B505462C464CB3254847
:1029A0000068844225D000F059FE2046FFF7D7FF8B
:1029B00001281CD1201DFFF717F994F82C100120D5
:1029C000884022490968084320490860E16A01EB10
:1029D00081011F4A02EB8100211DFFF7DFF8154935
:1029E000E06A0968C96A884201D300F02DFE00F050
:1029F00042FE70BD2DE9F041054600262C46FDF74C
:102A0000F5FB07462046FFF7AAFF012842D10E48F2
:102A1000006850B90749E06A0968C96A884200D36A
:102A20000126201DFFF7E0F81CE02EE060000020EA
:102A30005C0000203C0000205000002044000020EA
:102A4000400000206C000020700000205400002096
:102A5000E400002098010020580000204C000020D5
:102A60007001002094F82C1001208840F849096872
:102A70000843F7490860E16A01EB8101F54A02EB7E
:102A80008100211DFFF78AF804E004F11801F248E3
:102A9000FFF784F83846FDF7B0FB3046BDE8F0811B
:102AA00010B50446206B00F073FE204600F070FE67
:102AB00010BD70B523E0FFF7F0FDE848006808B9E5
:102AC000012000E000200546FFF742FDBDB900F0FF
:102AD000C5FDE248C068C468201DFFF785F8E048DE
:102AE0000068401EDE490860DE480068401EDD497F
:102AF000086000F0C0FD2046FFF7D2FF00BFD948B4
:102B000000680028D7D170BD00BFFFF7D2FFD148C1
:102B100000680128F9D900F097FDF6E71FB50020FD
:102B200000900190029003468022CFA10390D048EC
:102B3000FFF7CAFB0446012C02D100F0E6FC044674
:102B4000012C0CD1FDF752FBA01ECA4908600120E0
:102B5000C94908600020C949086000F05FFD1FBD39
:102B600010B5FDF743FB0020C349086000F06BFD82
:102B700010BDC249086870470021C04A10687047FC
:102B8000B7480068704770B506460C46BC480168F7
:102B900018313046FFF70EF8B9480068001DFFF7FE
:102BA00023F850B9B648006890F82C1001208840EE
:102BB000A74909688143A6480160601C30B9B04844
:102BC0000168091DAF48FEF7E9FF05E0AB48006862
:102BD00005192846FFF742FD70BD2DE9F041074673
:102BE0000D46144645F00040A54909688861A4488F
:102BF000016818313846FEF7D1FFA1480068001D72
:102C0000FEF7F2FF50B99E48006890F82C100120A2
:102C100088408F49096881438D480160601C30B944
:102C200097480168091D9748FEF7B8FF05E09348EB
:102C3000006806193046FFF711FDBDE8F0812DE967
:102C4000F04107460C4615468D4801681831384654
:102C5000FEF7A4FF8A480068001DFEF7C5FF50B9C3
:102C60008748006890F82C1001208840784909684E
:102C7000814377480160012D06D181480168091D13
:102C80008048FEF78BFF05E07C4800680619304657
:102C9000FFF7E4FCBDE8F08170B50646F068C46853
:102CA00004F11800FEF7A0FF77480068A8B9201DBE
:102CB000FEF79AFF94F82C100120884064490968B7
:102CC000084363490860E16A01EB8101614A02EB54
:102CD0008100211DFEF762FF04E004F118015E4847
:102CE000FEF75CFF6649E06A0968C96A884204D950
:102CF000012501206549086000E00025284670BDD7
:102D00002DE9F04105460F4647F000402860EC6889
:102D10002846FEF769FF201DFEF766FF94F82C1089
:102D2000012088404A490968084349490860E16A26
:102D300001EB8101474A02EB8100211DFEF72EFFC6
:102D40004F49E06A0968C96A884204D9012601200E
:102D50004E49086000E000263046BDE8F0814C494D
:102D600009680160454909684160704770B50446CB
:102D70000D4600F073FC414802682868401C08B901
:102D8000002619E0424920680968884204D060683A
:102D9000904201D801260FE06068101A2968884225
:102DA00009D228686168511A401A28602046FFF746
:102DB000D6FF002600E0012600F05DFC304670BD25
:102DC00001203249086070472B49096809B9012080
:102DD00005E02D49096809B9022000E0002070478C
:102DE00027490968886926490968C96AC1F1050146
:102DF000234A1268916170472DE9F04106460C465E
:102E000000F02CFC1E480068406CF8B901201C49F9
:102E1000096881F84800CCB119480068001DFEF728
:102E2000E3FE50B91648006890F82C100120884045
:102E300007490968814306480160601C38B9104899
:102E40000168091D0F48FEF7A9FE29E02AE021E0EC
:102E500054000020E40000207001002084010020C4
:102E60004C0000204800002049444C450000000070
:102E7000092B00086C0000205800002050000020A2
:102E80003C0000209801002070000020600000201D
:102E900064000020CB48006807193846FFF7DEFBC6
:102EA00000F0D2FB00F0E7FB00F0D8FBC64800685A
:102EB000456C65B126B10020C3490968486406E045
:102EC000C149096801F14400496C491E01600020B4
:102ED000BD49096881F8480000F0CDFB2846BDE8EF
:102EE000F0812DE9F0470746884615461C4600F05C
:102EF000B5FBB548006890F8480002282FD0B249C9
:102F0000096801F14400496CB94301600120AE49F0
:102F1000096881F8480014B3AB480068001DFEF74B
:102F200063FE50B9A848006890F82C100120884032
:102F3000A64909688143A5480160601C30B9A248D0
:102F40000168091DA248FEF729FE06E09D480068B9
:102F500000EB04094846FFF781FB00F075FB00F029
:102F60008AFB00F07BFB1DB197480068406C28602D
:102F70009548006890F84800012801D1002608E033
:102F80009149096801F14400496C21EA0801016096
:102F9000012600208C49096881F8480000F06BFB8D
:102FA0003046BDE8F0872DE9F04781460D461646CC
:102FB0001F464FF0010A4C4600F050FB0FB1606C09
:102FC000386094F84880022084F84800052E17D213
:102FD000DFE806F01503070B0D00606C2843606402
:102FE0000EE0606C401C60640AE0656408E0B8F1C3
:102FF000020F01D0656401E04FF0000A00E000BF5D
:1030000000BFB8F1010F1CD1201DFEF7EDFD94F8B3
:103010002C10012088406D49096808436B490860FD
:10302000E16A01EB81016B4A02EB8100211DFEF791
:10303000B5FD6549E06A0968C96A884201D900F0AE
:1030400003FB00F018FB5046BDE8F0872DE9F84F70
:1030500081460D4616461F46DDF828A04FF0010BAD
:103060004C46FDF7C3F800900FB1606C386094F8DF
:103070004880022084F84800052E17D2DFE806F0C9
:103080001503070B0D00606C284360640EE0606C54
:10309000401C60640AE0656408E0B8F1020F01D0EA
:1030A000656401E04FF0000B00E000BF00BFB8F125
:1030B000010F29D148480068A8B9201DFEF794FDEA
:1030C00094F82C10012088404049096808433F4982
:1030D0000860E16A01EB81013E4A02EB8100211D9B
:1030E000FEF75CFD04E004F118013C48FEF756FDD4
:1030F0003549E06A0968C96A884205D9BAF1000F02
:1031000002D00120CAF800000098FDF776F8584672
:10311000BDE8F88F2DE9F04105460E462C46FDF737
:1031200065F8804694F84870022084F84800606C86
:10313000401C6064012F26D127480068A8B9201DD3
:10314000FEF752FD94F82C10012088401F490968B1
:1031500008431E490860E16A01EB81011D4A02EB48
:103160008100211DFEF71AFD04E004F118011B483F
:10317000FEF714FD1449E06A0968C96A884202D959
:103180000EB1012030604046FDF737F8BDE8F08110
:1031900070B50446264616B90B48006800E0304674
:1031A000064600F05BFA96F84800022804D1002099
:1031B00086F84800012500E0002500F05CFA28466A
:1031C00070BD0000500000203C0000205400002092
:1031D00098010020E4000020700000207001002011
:1031E0002DE9F04104460D4616461F464FF00008F3
:1031F00065602461B5420CD8F01BA169884202D3F6
:103200004FF0010811E0211DEF480068FEF7D2FCE5
:103210000BE0BE4204D2BD4202D34FF0010804E0ED
:10322000211DEA480068FEF7C5FC4046BDE8F08174
:103230002DE9FE4305460C4616461F46DDF828805C
:103240004FF00009E248006810B30094019602951F
:10325000062C15DAFFF7B8FD022808D100234246F4
:103260006946DB480068FEF7B2FD814610E00023A6
:103270001A466946D6480068FEF7A9FD814607E070
:1032800000233A466946D2480068FEF715FE81469B
:103290004846BDE8FE832DE9F84326E0CB480068A8
:1032A000C0680568C9480068C068C468201DFEF78A
:1032B0009BFC2046616A8847E069012815D1A06916
:1032C0004619AE4207D966602461211DBF480068D7
:1032D000FEF770FC09E0002003462A4601460090F4
:1032E0002046FFF7A5FF804600BFB8480068006889
:1032F00008B9012000E000200028CFD0B3480768BB
:10330000B1480068B1490860AF480760BDE8F8837C
:1033100070B50446FFF72DFC0546AE4800688542AF
:1033200004D2FFF7B8FF0120206001E000202060F8
:10333000A8480560284670BD70B586B04EE0039879
:1033400000284BDB059C606908B9012000E00020E3
:1033500010B9201DFEF748FC02A8FFF7D9FF05466B
:1033600003980A2838D2DFE800F009050726283339
:103370000608272900BF00BF00BF00BF0498A2694C
:10338000811803462A462046FFF72AFF012811D15B
:103390002046616A8847E06901280BD1002000902F
:1033A0000498A1694218002319462046FFF740FF00
:1033B000064600BF11E000BF0FE000BF0498A06107
:1033C000A06941192B462A462046FFF709FF04E071
:1033D000204600F0DDF900E000BF00BF00231A46E0
:1033E00003A97B480068FEF7EBFD0028A7D106B0D3
:1033F00070BDF8B505460E4674480068C068C468DC
:10340000201DFEF7F1FBE069012812D1A0694119E6
:103410002B4632462046FFF7E3FE012809D1002063
:1034200003462A46014600902046FFF701FF074663
:1034300000BF2046616A8847F8BDF8B505460C46CE
:10344000FFF72BF96846FFF763FF06460098F0B9CF
:1034500044B9B54206D8FFF77BF831462846FFF756
:10346000C8FF16E03CB158480068006808B9012060
:1034700000E000200446A91B224655480068FEF7DC
:1034800096FEFFF765F820B900F0DEF801E0FFF7DF
:103490005FF8F8BD01464D4A126812680AB9012268
:1034A00000E000220A600A6822B9484A1268D2681D
:1034B000106800E00020704708B500BF6846FFF7BD
:1034C000E9FF044620460099FFF7B7FFFFF734FFF6
:1034D000F4E710B500F0C2F83D48006890B93E48E6
:1034E000FEF74CFB3D48FEF749FB3B483749086077
:1034F0003A483549086000220C210A20FEF7BFFB3C
:103500003349086000F0B7F810BD1FB50024FFF77D
:10351000E0FF2F48006868B100200423CDE90030A7
:10352000029003464FF480722DA103902E48FEF7BF
:10353000CBFE0446204604B010BD2DE9F0470646F8
:103540000D4617469846DDF820900DB9002410E08E
:10355000282000F0CAF804465CB1FFF7BAFF2660E5
:10356000A561E761C4F82080C4F82490201DFEF70F
:1035700012FB2046BDE8F08701460A4610687047F6
:1035800070B50446264600F069F8706908B9012054
:1035900000E0002080F0010500F06DF8284670BDC5
:1035A00070B50446264600F059F8356A00F063F815
:1035B000284670BD70B504460D46264600F04EF80C
:1035C000356200F058F870BD7800002074000020CB
:1035D0007C00002080000020AC010020C001002001
:1035E000546D722053766300B9340008FCF7FEFD79
:1035F00000BFFEE7001F4FF080730360001F0160F3
:10360000001F2B4B03601438026020387047294894
:103610004FF0E021486107200861704710B5264847
:10362000006840F47F00244908600846006840F0C4
:103630007F400860FFF7EBFF002020490860FCF79F
:10364000A3FD002010BD70474FF080501A491C396F
:103650000860BFF34F8FBFF36F8F704710B5FCF753
:10366000C5FD16480068401C14490860BFF34F8F21
:10367000BFF36F8F10BD10B510480068401E0F4992
:1036800008600846006810B90020FCF7B6FD10BDC0
:1036900010B5FCF7ABFDFEF7E2FE20B14FF0805015
:1036A00005491C3908600020FCF7A7FD10BD00008B
:1036B000ED3500083F19010020ED00E084000020F6
:1036C000434A22F00700434A10600022414B5A60EF
:1036D00044F2F832404B5A6000221A60014644F22C
:1036E000F8324A601A460A6070472DE9F0410446F4
:1036F0004FF00008FEF7D1FF3848006820B9FFF707
:10370000DFFF01203549086044B1083404F00700A8
:1037100020B104F00700C0F108000444002C32D0AE
:1037200044F2F83084422ED22A4F3846056801E030
:103730002F462D686868A04202D228680028F7D179
:10374000254885421FD0386800F10808286838608D
:103750006868001B102810D92E196868001B70605B
:103760006C6071681B4800E00068026852688A4219
:10377000FAD302683260066000BF194968680968B8
:10378000081A17490860FEF7E3FE4046BDE8F081DD
:1037900070B506463546B6B1083D2C46FEF77DFFAE
:1037A00061680C4800E00068026852688A42FAD3F7
:1037B0000268226004600A49606809680844084990
:1037C0000860FEF7C5FE70BD054800687047704789
:1037D000DC01002088000020900000209C000020D8
:1037E0009800002040EA01039B0703D009E008C9C4
:1037F000121F08C0042AFAD203E011F8013B00F8B6
:10380000013B521EF9D27047D2B201E000F8012B01
:10381000491EFBD270470022F6E710B513460A4650
:1038200004461946FFF7F0FF204610BD10B50022F0
:1038300000E0521C835C8C5CA34201D1002BF8D1C8
:10384000D8B2E1B2401A10BD30B50B460146002097
:103850002022012409E021FA02F59D4205D303FA52
:1038600002F5491B04FA02F52844151EA2F10102D3
:10387000F1DC30BD064C074D06E0E06840F0010386
:1038800094E8070098471034AC42F6D3FCF764FC88
:10389000903A0008B03A00080FB4054B10B503A9E0
:1038A000044A029800F018F810BC5DF814FB000000
:1038B00059040008A000002002E008C8121F08C137
:1038C000002AFAD170477047002001E001C1121FA1
:1038D000002AFBD1704700002DE9FF4F8BB09A46BC
:1038E0000F460546002606E025280BD052460D99C6
:1038F00090476D1C761C28780028F5D10FB0304613
:10390000BDE8F08F0024A0460122604900E0044396
:1039100015F8013F203B02FA03F00842F7D128785E
:103920002E2817D115F8010F44F004042A280ED0D0
:103930006FF02F022878A0F1300109290AD808EB8E
:10394000880102EB410100EB01086D1CF2E757F81A
:10395000048B6D1C287869283ED006DC0028CDD069
:1039600063280BD0642804D136E0732810D0752862
:103970004BD052460D999047761C85E017F8040B02
:103980008DF8000000208DF80100E946012003E0D9
:1039900057F8049B4FF0FF3061074FF0000401D44B
:1039A0000AE0641C44450DDA8442FADB19F804107D
:1039B0000029F6D106E0641C8442FCDB19F80410EF
:1039C0000029F8D1264404E019F8010B52460D995C
:1039D0009047641EF8D257E001CF4FF00A0B002841
:1039E00002DA40422D2102E0210504D52B218DF879
:1039F0002410012103E0E10705D02021F7E70DF1B4
:103A0000200908910CE00021F9E701CF4FF00A0BE3
:103A1000F9E75946FFF718FF01F1300209F8012DC7
:103A20000028F6D1ADEB090000F1200B600701D4AE
:103A30004FF00108D84502DDA8EB0B0000E00020A4
:103A40008046002406E009A85246005D0D99904783
:103A5000641C761C08988442F5DB04E03020524652
:103A60000D999047761CB8F10001A8F10108F5DC2A
:103A700005E019F8010B52460D999047761CBBF1F1
:103A80000001ABF1010BF4DC6D1C34E709280100E7
:103A9000B03A000800000020A4000000B838000878
:103AA000543B0008A400002034490000C838000836
:103AB0000000000000000000000000000000000006
:103AC00000000000000000000102030401020304E2
:103AD000060708090204060800A24A0400000000C4
:103AE00000000000010203040607080900000000AE
:103AF00000000000000000000000000000000000C6
:103B000000000000000000000000000000000000B5
:103B100000000000000000000000000000000000A5
:103B20000000000000000000000000000000000095
:103B300000000000AAAAAAAA0000000000000000DD
:103B40000000000000000000F8430000000000003A
:043B50000000000071
:04000005080001519D
:00000001FF
