:020000040800F2
:10000000D84900207D1700080105000803050008F5
:10001000070500080B0500080F0500080000000098
:100020000000000000000000000000004501000882
:100030001505000800000000890100083B34000895
:1000400097170008971700089717000897170008D8
:1000500097170008971700089717000897170008C8
:1000600097170008971700089717000897170008B8
:1000700097170008971700089717000897170008A8
:100080009717000897170008971700089717000898
:100090009717000897170008971700089717000888
:1000A0009717000897170008971700089717000878
:1000B0009717000897170008971700089717000868
:1000C0009717000897170008971700089717000858
:1000D000971700081D0500089717000897170008D4
:1000E0009717000897170008971700089717000838
:1000F0009717000897170008971700089717000828
:100100009717000897170008971700089717000817
:100110009717000897170008971700089717000807
:1001200097170008971700089717000897170008F7
:10013000DFF80CD003F076FA00480047BF03000850
:10014000D8490020204B19680868B0E8F00F80F308
:100150000988BFF36F8F4FF0000080F311884EF0D5
:100160000D0E70470000000006480068006880F32C
:10017000088862B661B6BFF34F8FBFF36F8F00DFA1
:1001800000BF00BF08ED00E0EFF30980BFF36F8F01
:100190000D4B1A6820E9F00F106008B54FF0BF0052
:1001A00080F3118802F053FA4FF0000080F31188B9
:1001B000BDE8084019680868B0E8F00F80F30988C6
:1001C000BFF36F8F704700BF3C000020EFF311803A
:1001D0004FF0BF0181F31188704780F31188704799
:1001E000EFF305807047000008B50020009000BFC5
:1001F0000023642269469A48006801F0D5FDF7E7BC
:1002000008B50120009000BF4FF47A7002F075F934
:1002100000231A4669469248006801F0CEFCBDF8FA
:100220000000401C00B20090EEE710B5044600202C
:100230008C498D4A126888548CA18A4803F0CDF904
:1002400020B98CA253218FA003F0FEF996A1854816
:1002500003F0C3F920B987A257218AA003F0F4F96B
:1002600000208149086040217E4803F0AAF910BDB2
:1002700000B587B00020ADF80400ADF806004FF4DB
:100280000070ADF808000020ADF80A0001A9884808
:1002900001F026F94FF4E13003900020ADF8100092
:1002A000ADF81200ADF81400ADF818000C20ADF850
:1002B0001600012240F225517D4801F034F903A9CE
:1002C0007B4801F098F80121794801F020F907B046
:1002D00000BD08B54FF40070ADF8000018208DF88F
:1002E000030003208DF802006946724800F022FDE9
:1002F0004FF48060ADF8000004208DF803006946DB
:100300006C4800F017FD08BD08B500214FF00060F3
:1003100000F090F925208DF8000000208DF80100F4
:100320008DF8020001208DF80300684600F047F9BF
:1003300008BD10B500F04AFE4FF4803000F066FEB4
:1003400000F0A3FE5C49087008460078012826D119
:10035000002000F0DCFE002000F0EBFE4FF4806097
:1003600000F0DEFE022000F0A1F9102000F0B2F94A
:100370004FF4E0114FF4803000F0ACFE012000F0AB
:10038000B5FE00BF392000F064FE0028FAD002203C
:1003900000F0AFFE00BF00F0B5FE0828FBD1012140
:1003A00044F2040000F079FF10BD10B5FFF7C1FF63
:1003B000FFF7AAFFFFF78DFFFFF75AFF10BD1FB52C
:1003C000FFF7F3FF3DA003F03FF92AA235212DA04E
:1003D00003F03AF9AFF2AD13009300231A4614214B
:1003E0003DA002F07BFF4049086000220221052069
:1003F00001F03BFB1A49086000220221052001F0B0
:1004000034FB3A49086000230320CDE9000302933E
:10041000802237A1AFF21720039301F045FE00239D
:100420000420CDE900030293802233A1AFF24720DC
:10043000039301F039FE02F054FA002004B010BD1D
:1004400070B504460D46E1B2194801F0D0F800BF7E
:100450004021174801F039F90028F9D0204670BD35
:1004600008000020A40000201000002073746172B6
:10047000740000002E2E5C557365725C6D61696EB0
:100480002E6300000D0A203D3D3D3D3D3D3D3D3D7F
:100490006C696E65203D2025643D3D3D3D3D3D251B
:1004A000733D3D3D3D0D0A0073746F700000000008
:1004B0000038014000080140040000200D0A2057C8
:1004C000656C636F6D6520746F202C48656C6C6F74
:1004D000205748200D0A000052656365697665540F
:1004E000696D657200000000000000200C00002013
:1004F0005461736B410000005461736B4200000053
:10050000704700BFFEE700BFFEE700BFFEE700BF89
:10051000FEE77047704770477047000038B540F2FB
:100520002551204801F0E7F8D0B3002240F22551D0
:100530001C4800F0F8FF40F225511A4801F005F977
:10054000184801F058F8C1B2174802680068401C0A
:10055000154B18601548815400231A46032114488E
:100560000093006802F03AFD02F0E5F9044600232A
:10057000024602210E480093006802F02FFD02F0AF
:10058000DAF9044600230246012109480093006875
:1005900002F024FD012240F22551024800F0C3FF81
:1005A00038BD00000038014010000020A4000020E9
:1005B0000000002036490143364A1160704770B58B
:1005C000002100230F22C4784CB3324C246804F479
:1005D000E064C4F5E0644FEA1421C1F1040322FA97
:1005E00001F2447804FA03F1847804EA020444EA4C
:1005F00001014FEA0111284C0678A155047804F056
:100600001F054FF0010404FA05F405784FEA65155B
:100610004FF0E02606EB8505C5F8004109E00478B7
:1006200004F01F050124AC401C4D0678761145F8F6
:10063000264070BD1A4A0A4002431A4B1A6070479E
:1006400041B1194A126842EA00024FF0E023C3F8B0
:10065000102D07E0144A126822EA00024FF0E0234E
:10066000C3F8102D7047042808D14FF0E021096924
:1006700041F004014FF0E022116107E04FF0E0216A
:10068000096921F004014FF0E02211617047000078
:100690000000FA050CED00E000E400E080E100E07D
:1006A00080FFFF1F08ED00E010ED00E00146002094
:1006B000FF4A106800F03800084310607047FC499A
:1006C000096821F00801FA4A1160114609680143DE
:1006D00011607047F649096821F01001F44A116071
:1006E00011460968014311607047F248F0494860BB
:1006F000F14848607047EF48ED494860EE4848606F
:100700007047EB48006940F08000E9490861704794
:10071000E748006940F08000E5490861704704201F
:10072000E349C96801F00101012901D101200EE06E
:10073000DF49C96811F0040F01D0022007E0DC494D
:10074000C96811F0100F01D0032000E004207047A9
:1007500000B502460423FFF7E2FF034603E0FFF77C
:10076000DEFF0346521E012B01D1002AF7D102B948
:100770000523184600BD30B5044604254FF430204B
:10078000FFF7E6FF0546042D17D1C948006940F080
:100790000200C749086108464461006940F0400012
:1007A00008614FF43020FFF7D3FF0546C0480069C9
:1007B00041F6FD710840BE490861284630BD10B5BC
:1007C00004244FF43020FFF7C3FF0446042C16D155
:1007D000B748006940F00400B5490861084600695F
:1007E00040F0400008614FF43020FFF7B1FF0446AD
:1007F000AF48006941F6FB710840AD4908612046E9
:1008000010BD00B502460423FFF789FF034603E04D
:10081000FFF785FF0346521E012B01D1002AF7D1B5
:1008200002B90523184600BD10B504244FF430204A
:10083000FFF7E7FF0446042C16D19D48006940F0FD
:1008400004009B4908610846006940F040000861C7
:100850004FF43020FFF7D5FF04469548006941F674
:10086000FB71084092490861204610BD0020904964
:10087000C96911F0020F01D0012000E0002070478B
:1008800030B5A5250424FFF7F1FF00B100254FF492
:100890003020FFF75DFF0446042C3BD18548844996
:1008A0008860854888600846006940F0200008613B
:1008B0000846006940F0400008614FF43020FFF71F
:1008C00047FF0446042C1CD17948006941F6DF71CA
:1008D0000840774908610846006940F01000086147
:1008E000764805804FF40050FFF732FF0446052C90
:1008F00010D06F48006941F6EF7108406C490861FB
:1009000008E0052C06D06A48006941F6EF710840FE
:1009100067490861204630BDF0B504460D460426FF
:100920000027F002FFF714FF0646042E22D160488C
:10093000006940F001005E4908612580F002FFF780
:1009400007FF0646042E0ED1A71C280C3880F002A3
:10095000FFF7FEFE06465648006941F6FE71084064
:100960005349086106E05248006941F6FE710840AB
:100970004F4908613046F0BD70B504460D46042667
:10098000F002FFF7E5FE0646042E11D14848006943
:1009900040F00100464908612580F002FFF7D8FECB
:1009A00006464348006941F6FE7108404049086127
:1009B000304670BD70B505460E460424E002FFF7D0
:1009C000C7FE0446042C17D13A48394988603A4892
:1009D00088600846006940F0100008612E80E0023F
:1009E000FFF7B6FE0446052C06D03148006941F6F3
:1009F000EF7108402E490861204670BD2DE9F04393
:100A000004464FF6FF763746B046B1460425E44328
:100A1000E6B2C4F30727C4F307484FEA1469E802B3
:100A2000FFF796FE0546042D3ED1224820498860F6
:100A3000214888600846006940F010000861FF2ED8
:100A400006D01F4806804FF40050FFF781FE054690
:100A5000042D08D1FF2F06D01A4807804FF400500C
:100A6000FFF776FE0546042D09D1B8F1FF0F06D039
:100A70001548A0F80C88E802FFF76AFE0546042D29
:100A800009D1B9F1FF0F06D00F48A0F80E98E8027F
:100A9000FFF75EFE0546052D06D00548006941F6C4
:100AA000EF710840024908612846BDE8F083000064
:100AB0000020024023016745AB89EFCD00F8FF1FFE
:100AC00008F8FF1F0AF8FF1F00F0FF1F30B50546AA
:100AD00004244FF43020FFF73BFE0446042C41D1A0
:100AE0005F4860498860604888600846006940F057
:100AF000200008610846006940F0400008614FF49A
:100B00003020FFF725FE0446042C22D15548006909
:100B100041F6DF710840534908610846006940F01A
:100B2000100008611DB100205049088002E0A52096
:100B30004E4908804FF43020FFF70AFE0446052C8A
:100B400010D04848006941F6EF71084045490861F6
:100B500008E0052C06D04348006941F6DF710840E3
:100B600040490861204630BDF0B505460E4617469F
:100B700004243B483B4988603B488860E002FFF71B
:100B8000E7FD0446042C19D13648006940F01000F6
:100B90003449086147F0F80030432843344908805D
:100BA0004FF40050FFF7D4FD0446052C06D02D4825
:100BB000006941F6EF7108402A4908612046F0BDFE
:100BC0002848C069800870472648006A704700209E
:100BD0002449096811F0200F01D0012000E0002015
:100BE000704729B11F4A126902431E4B1A6104E083
:100BF0001C4A126982431B4B1A6170470146002050
:100C0000012908D1174AD26912F0010F01D0012041
:100C100008E0002006E0134AD2680A4201D0012011
:100C200000E0002070470F49C860704704200D495C
:100C3000C96801F00101012901D101200EE0094933
:100C4000C96811F0040F01D0022007E00549C96806
:100C500011F0100F01D0032000E0042070470000C5
:100C60002301674500200240AB89EFCD00F8FF1F4C
:100C700002F8FF1F10B50446CA48844208D101217A
:100C8000042000F024FB0021042000F020FB46E0BB
:100C9000C548844208D10121082000F018FB00213A
:100CA000082000F014FB3AE0C048844208D101213A
:100CB000102000F00CFB0021102000F008FB2EE0BB
:100CC000BB48844208D10121202000F000FB002114
:100CD000202000F0FCFA22E0B648844208D101212D
:100CE000402000F0F4FA0021402000F0F0FA16E075
:100CF000B148844208D10121802000F0E8FA0021A7
:100D0000802000F0E4FA0AE0AC48844207D10121D7
:100D1000801500F0DCFA0021A01500F0D8FA10BD13
:100D200010B50121084600F0D2FA0021012000F0A0
:100D3000CEFA10BD2DE9F041024600250026002024
:100D400000230024002791F803C00CF00F0591F850
:100D500003C01CF0100F03D091F802C04CEA050547
:100D6000B1F800C01CF0FF0F31D0146800202BE058
:100D70004FF0010C0CFA00F3B1F800C00CEA0306C6
:100D80009E4220D183004FF00F0C0CFA03F7BC43B6
:100D900005FA03FC4CEA040491F803C0BCF1280FE7
:100DA00006D14FF0010C0CFA00FCC2F814C00AE0A6
:100DB00091F803C0BCF1480F05D14FF0010C0CFABB
:100DC00000FCC2F810C0401C0828D1D31460B1F850
:100DD00000C0BCF1FF0F34DD546800202EE000F1AC
:100DE000080C4FF0010808FA0CF3B1F800C00CEA47
:100DF00003069E4221D183004FF00F0C0CFA03F73B
:100E0000BC4305FA03FC4CEA040491F803C0BCF1AE
:100E1000280F05D100F1080C08FA0CF8C2F814806C
:100E200091F803C0BCF1480F07D100F1080C4FF056
:100E3000010808FA0CF8C2F81080401C0828CED32C
:100E40005460BDE8F0814FF6FF710180022181708E
:100E50000421C17070470246002093680B4201D004
:100E6000012000E0002070470146886880B270478A
:100E700002460020D3680B4201D0012000E0002090
:100E800070470146C86880B2704701617047416190
:100E900070470AB1016100E041617047C16070476D
:100EA0004FF480320A438261816182618269826982
:100EB000704702460020424B18684FF68073184076
:100EC00040EA021008433E4B186070473D49C86134
:100ED0007047F0B50A46002300240021002500F0E9
:100EE0000046B6F1004F02D1354EF16901E0344EB3
:100EF0007168C0F3034583B200F44016B6F5401F95
:100F000008D121F070612E4E766826F070662C4F65
:100F10007E6012E000F48016B6F5801F06D103262D
:100F200006FA05F4A14341F0706106E0460D360172
:100F300003FA06F6B14341F0706122B1460D360165
:100F400003FA06F6314300F00046B6F1004F02D135
:100F50001B4EF16101E01A4E7160F0BD30B5002208
:100F60008B071C0F0F2303FA04F2154B08338C1068
:100F700053F824309343124C08348D1044F8253034
:100F800023468C1053F824308C07240F00FA04F405
:100F900023430B4C08348D1044F8253030BD0A49EA
:100FA0000860704700080140000C0140001001403B
:100FB0000014014000180140001C014000200140C5
:100FC0000000014000002042DC002042DB480068B5
:100FD00040F00100D949086008464068D8490840F7
:100FE000D649486008460068D6490840D349086099
:100FF0000846006820F4802008600846406820F415
:10100000FE0048604FF41F0088607047CB490968B4
:1010100021F48031C94A11601146096821F4802108
:101020001160B0F5803F03D0B0F5802F0ED106E0FF
:10103000C249096841F48031C04A116007E0BF49E4
:10104000096841F4A021BD4A116000E000BF00BF63
:10105000704710B501460022002300204A11012AE2
:1010600002D1B64C236806E0022A02D1B34C236AAF
:1010700001E0B24C636A01F01F02012494401C425B
:1010800001D0012000E0002010BD70B50024002533
:10109000002600BF3120FFF7DCFF0646641CB4F5D4
:1010A000A06F01D0002EF5D03120FFF7D2FF08B19C
:1010B000012500E00025284670BD014600209F4A1A
:1010C000106820F0F80040EAC100106070479E49A7
:1010D0000860704702460020984B586820F47C1046
:1010E00042EA01031843954B5860704796490866D9
:1010F000704701460020914A506820F003000843E1
:10110000506070478D48406800F00C007047014601
:1011100000208A4A506820F0F00008435060704771
:1011200001460020854A506820F4E0600843506082
:10113000704701460020814A506820F4605040EA20
:10114000C1005060704729B17C4A527A02437B4B00
:101150005A7206E0794A527AC343DBB21A40774B9F
:101160005A72704779490860704701460020734AF7
:10117000506820F440400843506070470021744A92
:1011800011706E4A82F82010012802D0042808D17C
:1011900003E001216E4A117004E005216C4A1170D0
:1011A00000E000BF00BF70476A49086070476349AC
:1011B000096A0143614A11627047674908607047D4
:1011C00030B500210022002400235C4D6D6805F03D
:1011D0000C0121B1042905D0082923D105E05F4D78
:1011E000056022E05D4D05601FE0544D6D6805F41B
:1011F0007012524D6D6805F48034022505EB924261
:101200001CB9574D554305600BE04C4D6D6815F406
:10121000003F03D0524D5543056002E04F4D55430A
:10122000056002E04D4D056000BF00BF434D6D6895
:1012300005F0F00109094B4D6B5C0568DD40456028
:101240003E4D6D6805F4E061090A464D6B5C4568EA
:10125000DD408560394D6D6805F46051C90A414D26
:101260006B5C4568DD40C560344D6D6805F44041F8
:10127000890B3D4D6B5CC568B5FBF3F5056130BD71
:1012800029B12E4A526902432C4B5A6104E02B4A81
:1012900052698243294B5A61704729B1274A9269A2
:1012A0000243264B9A6104E0244A92698243234B0D
:1012B0009A61704729B1214AD26902431F4BDA6112
:1012C00004E01E4AD26982431C4BDA61704729B19F
:1012D0001A4AD2680243194BDA6004E0174AD2680E
:1012E0008243164BDA60704729B1144A12690243EF
:1012F000124B1A6104E0114A126982430F4B1A61C2
:1013000070471A49086070470F49C86470470B4915
:10131000C87170470948406A40F0807007494862C8
:10132000704701460020054A92680A4201D0012018
:1013300000E00020704701498872704700100240A9
:101340000000FFF8FFFFF6FE00004242D8004242D4
:1013500020100240800442423C04424200127A00C3
:1013600000093D00140000202400002040044242F7
:1013700010B50446FC48844209D101218803FFF7D7
:10138000A6FF00214FF48040FFF7A1FF32E0F748AD
:10139000844209D101214804FFF7A6FF00214FF440
:1013A0000030FFF7A1FF25E0F148844209D1012177
:1013B0008804FFF799FF00214FF48020FFF794FF86
:1013C00018E0EC48844209D10121C804FFF78CFFE2
:1013D00000214FF40020FFF787FF0BE0E64884422E
:1013E00008D101210805FFF77FFF00214FF480108D
:1013F000FFF77AFF10BD2DE9F04786B005460E468F
:101400000024A24600BFA1460027B08900B100BF5A
:101410002F462C8A4CF6FF700440F08804432C823F
:10142000AC894EF6F3100440B088318908437189C5
:1014300008430443AC81AC8A4FF6FF400440B089B6
:101440000443AC8201A8FFF7BBFEC748874202D124
:10145000DDF810A001E0DDF80CA0A88910F4004F21
:1014600008D00AEBCA0000EB0A1031684900B0FB53
:10147000F1F807E00AEBCA0000EB0A1031688900B6
:10148000B0FBF1F86420B8FBF0F0040120096421FE
:1014900001FB1089A88910F4004F08D0322000EB1E
:1014A000C900B0FBF1F000F00700044308E032206F
:1014B00000EB09106421B0FBF1F000F00F000443D1
:1014C0002C8106B0BDE8F0874FF416510160002171
:1014D0008180C18001810C2141810021818170477F
:1014E00010B502460020108A4FF2FF0318400B8807
:1014F0004C8823438C882343CC8823431843108291
:1015000010BD0021018041808180C180704721B1E0
:10151000828942F40052828104E082894DF6FF7391
:101520001A4082817047F0B503460024002600254A
:101530000020A1F510676A3F00D100BF1846C1F333
:10154000421401F01F06012707FA06F5012C01D10C
:101550000C3004E0022C01D1103000E014301AB13C
:1015600007682F43076002E00768AF430760F0BDDC
:1015700010B51AB1838A0B43838204E0838ACC437B
:10158000A4B22340838210BD028A4FF6F0731A4042
:101590000282028A0A430282704782894FF2FF73F5
:1015A0001A40828182890A438281704721B18289EF
:1015B00042F00202828104E082894FF6FD731A40F4
:1015C00082817047028A4FF6DF731A400282028AD4
:1015D0000A430282704721B1028A42F480420282A9
:1015E00004E0028A4BF6FF731A4002827047C1F38F
:1015F00008028280704701468888C0F3080070475F
:10160000818941F0010181817047028BD2B202834E
:10161000028B42EA012202837047028B02F47F426E
:101620000283028B0A430283704721B1828A42F00F
:101630002002828204E0828A4FF6DF731A4082829F
:10164000704721B1828A42F01002828204E0828ACD
:101650004FF6EF731A408282704721B1828A42F0BE
:101660000802828204E0828A4FF6F7731A4082826F
:10167000704721B1828942F40042828103E082896D
:10168000C2F30E028281704721B1828A42F4006265
:10169000828204E0828A4FF2FF731A40828270478E
:1016A000828A4FF6FB731A408282828A0A438282C0
:1016B000704721B1828A42F00202828204E0828A6B
:1016C0004FF6FD731A408282704702460020B1F542
:1016D000007F00D100BF13880B4201D0012000E041
:1016E0000020704701F40072B2F5007F00D100BF06
:1016F000CA430280704770B50246002400230025CB
:101700000020A1F510666A3E00D100BFC1F342156A
:1017100001F01F03012606FA03F3012D02D1968979
:10172000334006E0022D02D1168A334001E0968A4A
:1017300033400C12012606FA04F41688344013B123
:101740000CB1012000E0002070BD10B50022002384
:10175000A1F510646A3C00D100BF0A120124944034
:10176000A3B2DC43048010BD0038014000440040B7
:1017700000480040004C00400050004006488047B0
:1017800006480047FEE7FEE7FEE7FEE7FEE7FEE766
:10179000FEE7FEE7FEE7FEE76918000831010008F2
:1017A00000210020674A126842F48032654B1A60BB
:1017B00000BF644A126802F40030491C10B9B1F548
:1017C000A06FF6D15F4A126812F4003F01D00120E9
:1017D00000E00020012842D15B4A126842F010026A
:1017E000594B1A601A46126822F003021A601A4610
:1017F000126842F002021A60524A5268514B5A6013
:101800001A4652685A601A46526842F480625A6018
:101810001A46526822F47C125A601A46526842F400
:10182000E8125A601A46126842F080721A6000BFCD
:10183000444A126812F0007FFAD0424A526822F0FD
:101840000302404B5A601A46526842F002025A6044
:1018500000BF3C4A526802F00C02082AF9D17047D6
:1018600010B5FFF79DFF10BD10B53648006840F079
:10187000010034490860084640683449084031494D
:10188000486008460068324908402E49086008460A
:10189000006820F4802008600846406820F4FE00BC
:1018A00048604FF41F008860FFF7DAFF4FF00060D8
:1018B0002849086010BD10B5002100200022214BEE
:1018C0005B6803F00C0121B1042906D0082928D156
:1018D00007E0214B214C236027E01F4B1F4C236066
:1018E00023E0184B5B6803F47010164B5B6803F43D
:1018F0008032022303EB904022B9194B4343174C2B
:1019000023600DE00F4B5B6813F4003F04D0144BD1
:101910004343124C236003E00F4B43430F4C2360BF
:1019200003E00D4B0D4C236000BF00BF054B5B680F
:10193000C3F303130B4CE15C084B1B68CB40074C13
:10194000236010BD00100240002002400000FFF89C
:10195000FFFFF6FE08ED00E000127A0028000020EC
:1019600000093D002C00002000F1080141604FF00B
:10197000FF31816000F10801C16001610021016057
:10198000704700210161704742684A6093688B602C
:10199000936859609160086103685B1C036070473D
:1019A00010B502460B685C1C01D1106907E002F11A
:1019B000080000E04068446824689C42FAD9446802
:1019C0004C604C68A160886041600A611468641CC6
:1019D000146010BD01460A69D1E901309860D1E96F
:1019E000010358605068884201D188685060002027
:1019F00008611068401E10601068704770B5054699
:101A00000E462C4601F0FFFCD4E90F12206801FBC2
:101A1000020060600020A0632068A060E06B401EB0
:101A2000226C216800FB0210E0604FF0FF30606420
:101A3000A06476B9206908B9012000E0002080B9CF
:101A400004F1100001F007F801280AD101F0D2FCDE
:101A500007E004F11000FFF787FF04F12400FFF70F
:101A600083FF01F0DDFC012070BD2DE9F047064643
:101A70000D4691464FF000080DB9002702E006FB25
:101A800005F0471C07F14C0001F005FD044664B168
:101A90000DB9246002E004F14C002060E663256487
:101AA00001212046FFF7AAFFA0464046BDE8F08787
:101AB00010B5044601F0A7FC11E0606A08B90120E6
:101AC00000E0002038B904F1240000F0C4FF18B190
:101AD00001F053F800E005E0A06C401EA064A06C8B
:101AE0000028EADC00BF4FF0FF30A06401F098FC52
:101AF00001F089FC11E0206908B9012000E0002014
:101B000050B904F1100000F0A6FF08B101F035F85B
:101B1000606C401E606400E002E0606C0028EADC5B
:101B200000BF4FF0FF30606401F07AFC10BD70B56B
:101B3000054601F068FCA86BE96B884201D10124DD
:101B400000E0002401F06CFC204670BD2DE9F0415E
:101B500004460E4615460027206C40B37DB9314639
:101B6000226CA06801F014FD216CA0680844A060FC
:101B7000D4E9011088421AD32068A06017E03146EA
:101B8000226CE06801F004FD216CE068401AE0601E
:101B90002168E068884203D2216C6068401AE060E6
:101BA000022D04D1A06B10B1A06B401EA063A06BEE
:101BB000401CA0633846BDE8F0812DE9FF4383B0A7
:101BC000074688461D464FF000093C4600BF01F01D
:101BD0001AFCA06BE16B884201D3022D1DD12A466D
:101BE00041462046FFF7B2FF0646606A08B9012069
:101BF00000E0002040B904F1240000F02CFF01288F
:101C000005D101F0F7FB02E00EB101F0F3FB01F0AA
:101C100007FC012007B0BDE8F083059818B901F072
:101C2000FFFB0020F6E7B9F1000F04D101A800F096
:101C300073FF4FF0010901F0F3FB00F01AFC01F013
:101C4000E2FB606C401C00D16064A06C401C00D1C1
:101C5000A06401F0E5FB05A901A800F064FFC0B98C
:101C60002046FFF764FF70B104F11000059900F001
:101C70006CFE2046FFF71CFF00F058FB0028A6D1A1
:101C800001F0B8FBA3E72046FFF712FF00F04EFB80
:101C90009DE72046FFF70CFF00F048FB0020B9E766
:101CA0002DE9F0470546894616461F462C46FEF7A5
:101CB0008DFA8246A06BE16B884201D3022F1CD1C2
:101CC0003A4649462046FFF741FFA06C401C0ED122
:101CD000606A08B9012000E0002058B904F124002E
:101CE00000F0B9FE30B12EB10120306002E0A06CEE
:101CF000401CA0644FF0010801E04FF0000850467E
:101D0000FEF76BFA4046BDE8F0872DE9F041054645
:101D10000E462C46FEF75AFA8046A06BE16B8842CD
:101D200019D2A06B401CA063A06C401C0ED1606A4D
:101D300008B9012000E0002058B904F1240000F0A7
:101D40008AFE30B12EB10120306002E0A06C401C50
:101D5000A064012700E000274046FEF73EFA38461F
:101D6000BDE8F08170B5054601F04DFBA86B08B9E0
:101D7000012400E0002401F053FB204670BD70B543
:101D800004460D46206C70B1216CE0680844E060A8
:101D90006168E068884201D32068E0602846226CD0
:101DA000E16801F0F5FB70BD2DE9FF4383B0054606
:101DB00088461E464FF000092C4600BF01F023FB69
:101DC000A06B58B3E76841462046FFF7D8FF8EB9AD
:101DD000A06B401EA063206908B9012000E000202C
:101DE000B0B904F1100000F036FE012810D101F066
:101DF00001FB0DE0E760606A08B9012000E0002007
:101E000030B904F1240000F026FE08B101F0F2FA26
:101E100001F006FB012007B0BDE8F083059818B972
:101E200001F0FEFA0020F6E7B9F1000F04D101A895
:101E300000F072FE4FF0010901F0F2FA00F019FB18
:101E400001F0E1FA606C401C00D16064A06C401CA1
:101E500000D1A06401F0E4FA05A901A800F063FE36
:101E6000C0B92046FFF77EFF70B104F12400059948
:101E700000F06BFD2046FFF71BFE00F057FA00282C
:101E80009CD101F0B7FA99E72046FFF711FE00F068
:101E90004DFA93E72046FFF70BFE00F047FA0020CB
:101EA000B9E72DE9F0470546884616462C46FEF769
:101EB0008DF98146A06BE8B141462046FFF75FFFF0
:101EC000A06B401EA063606C401C0ED1206908B955
:101ED000012000E0002058B904F1100000F0BBFD23
:101EE00030B12EB10120306002E0606C401C6064B3
:101EF000012700E000274846FEF76FF93846BDE8A5
:101F0000F0872DE9F047054688462C46FEF75EF936
:101F10008146A06B38B1E76841462046FFF72FFFA6
:101F2000E760012600E000264846FEF756F93046F5
:101F3000BDE8F08770B5044601F065FAA56B01F0C5
:101F40006FFA284670BD70B50446254601F05BFA6D
:101F5000D5E90E10461A01F063FA304670BD01460D
:101F6000886B704770B504462546284601F0E5FAAF
:101F700070BD01468A6B0AB9012000E0002070475D
:101F800001468A6BCB6B9A4201D1012000E0002010
:101F900070472DE9F04105460E4617462C4601F0E4
:101FA00032FA606C401C00D16064A06C401C00D10F
:101FB000A06401F035FAA06B28B93A46314604F125
:101FC000240000F01CFD2046FFF772FDBDE8F08103
:101FD00010B5002407E004EB8401FF4A02EB810006
:101FE000FFF7C2FC641C052CF5D3FC48FFF7BCFCD2
:101FF000FB48FFF7B9FCFB48FFF7B6FCFA48FFF7D0
:10200000B3FCFA48FFF7B0FCF448F9490860F4481B
:10201000F849086010BD2DE9F04704460F46164602
:102020009946DDF82080002507E0795D04F1340051
:102030004155785D00B902E06D1C102DF5D300BF4D
:10204000002143200155052E00D30426E662201D01
:10205000FFF797FC04F11800FFF793FC2461C6F129
:102060000500A06164620020606484F84800BDE857
:10207000F0872DE9F04106460F461FB9B00001F088
:102080000AFA00E03846054655B14C2001F003FA43
:1020900004460CB1256304E0284601F04EFA00E046
:1020A00000242046BDE8F0812DE9FF4F81B0804635
:1020B00015469946DDE90E7A28461099FFF7D9FFB3
:1020C0000446F4B3681E216B01EB800B2BF0070B69
:1020D00000953A462046119B0299FFF79CFF4A461D
:1020E0004146584601F058F92060BAF1000F01D07E
:1020F000CAF8004001F087F9BF480068401CBE499B
:102100000860BE48006840B9BC48046008460068E2
:1021100001280CD1FFF75CFF09E0B948006830B92D
:10212000B6480068C06AB84201D8B4480460B548EF
:102130000068401CB34908600120E16A8840B24948
:1021400000E010E009680843AF490860E16A01EB6C
:102150008101A14A02EB8100211DFFF715FC012638
:1021600001F05EF901E04FF0FF36012E09D1A448DD
:10217000006830B1A1480068C06AB84201D201F0DD
:1021800039F9304605B0BDE8F08F9949096809680A
:1021900009B9012100E0002121B14FF0FF319B4A34
:1021A000116006E092490968C968C868974A4168A1
:1021B0001160704770B5054601F025F915B98F48D3
:1021C000006800E028460446201DFFF703FC70B9B4
:1021D000E06A00EB8000804951F8200038B9012006
:1021E000E16A884088490968814387480160A06A9C
:1021F00018B104F11800FFF7EDFB211D7A48FFF735
:10220000C3FB83480068401C814908607D48006822
:10221000401C7C49086001F003F97948006860B10E
:1022200076480068844202D101F0E4F805E001F04C
:10223000EAF8FFF7AAFF01F0F3F870BD2DE9F041CD
:10224000002774480068A8BB73480068401C7249A6
:102250000860084606688EB96548D0F80080654871
:102260000068634908606348C0F800806B480068F4
:10227000401C6A490860FFF788FF00BF6348006898
:1022800086423BD300BF5A480068006808B9012065
:1022900000E0002020B14FF0FF305C4908602CE0E6
:1022A00053480068C068C4686568AE4203D25748A6
:1022B000056022E02EE0201DFFF78CFBA06A18B11C
:1022C00004F11800FFF786FB0120E16A88404E49BF
:1022D000096808434C490860E16A01EB81013E4A04
:1022E00002EB8100211DFFF74FFB4449E06A0968BA
:1022F000C96A8842C7D30127C5E700BF3F480068C5
:10230000C06A00EB8000344951F82000012806D94A
:10231000012704E042480068401C414908604148E8
:10232000006800B101273846BDE8F08170B500258E
:1023300001F069F837480068401E364908600846D1
:10234000006898BB2C48006880B323E02548C0682B
:10235000C46804F11800FFF73DFB201DFFF73AFBAE
:102360000120E16A88402849096808432649086035
:10237000E16A01EB8101184A02EB8100211DFFF7A0
:1023800003FB1E49E06A0968C96A884202D301203A
:10239000244908601348006808B9012000E00020C3
:1023A0000028D3D01E48006880B10BE03EE0FFF764
:1023B00045FF10B101201B49086019480068401E04
:1023C00017490860164800680028F0D115480068D1
:1023D00001282BD1012527E0E4000020480100203E
:1023E0005C01002070010020840100209801002081
:1023F0006C00002070000020440000203C00002001
:1024000050000020600000204C00002064000020EC
:102410004000002068000020480000205C000020F0
:10242000540000205800002000F0E4FF00F0F8FF06
:10243000284670BD10B50446F84800684460F84866
:102440000068844207D2F5480168091DF548006814
:10245000FFF7A6FA0CE0F1480168091DF248006890
:10246000FFF79EFAF1480068844201D2EF48046009
:1024700010BDEF480068401CED49086070472DE929
:10248000F047044688464FF00009FFF7F2FFE448A2
:102490000768206800EB08052068B84207D9206863
:1024A000A8420BD9BD4209D94FF0010906E02068C6
:1024B000A84201D8BD4201D94FF001092560B9F108
:1024C000000F12D0D5480068001DFFF783FA48B905
:1024D000D2480068C16A01208840D6490968814312
:1024E000D44801602846FFF7A5FFFFF71FFF064607
:1024F0000EB900F07FFFBDE8F08770B504460026F6
:10250000D4B1FFF7B6FFC64800680519C348006894
:10251000001DFFF75FFA48B9C0480068C16A012092
:102520008840C44909688143C24801602846FFF7D2
:1025300081FFFFF7FBFE06460EB900F05BFF70BDA2
:1025400070B5044600F05FFF14B9B448006800E0BD
:1025500020460646F56A00F063FF284670BD2DE967
:10256000F0410446FDF732FE064614B9AB48006858
:1025700000E020460746FD6A3046FDF72EFE28465D
:10258000BDE8F0812DE9F04780460D464FF0000987
:10259000052D00D3042500F036FFB8F1000F02D15D
:1025A0009E48006800E040460446E66AAE424AD0D3
:1025B000B5420BD99948006884420DD0974800680D
:1025C000C06AA84208D84FF0010905E093480068A6
:1025D000844201D14FF00109E76AE562A06910F079
:1025E000004F02D1C5F10500A06107EB8701924AB7
:1025F00002EB81016069884201D1012000E00020E6
:10260000D8B1201DFFF7E6F930B90120B84089495B
:1026100009688143874801600120E16A8840854953
:102620000968084383490860E16A01EB8101824A35
:1026300002EB8100211DFFF7A7F9B9F1010F01D1CC
:1026400000F0D8FE00BF00F0EBFEBDE8F087784850
:10265000006818B10120794908601DE00020774921
:10266000086074480068B0FA80F0C0F11F0101EB07
:102670008102714B03EB820042685268426000F1B4
:1026800008024368934202D142685268426042683D
:10269000D268624B1A6000BF704770B5054600F003
:1026A000B2FE15B95D48006800E028460446201DCA
:1026B000FFF790F970B9E06A00EB80005E4951F8CD
:1026C000200038B90120E16A88405A4909688143ED
:1026D00058480160A06A18B104F11800FFF77AF9B0
:1026E000211D5748FFF750F900F09AFE4B4800684B
:1026F000844212D15348006810B100F07BFE15E00F
:102700004F48006850490968884203D10020434976
:1027100008600BE0FFF79BFF08E04A48006828B11B
:1027200000F071FEFFF731FD00F07AFE70BD10B5CC
:10273000014600200A46424C5369A34201D10123BD
:1027400000E0002373B1414C936AA34201D10123FD
:1027500000E0002333B9936A0BB9012300E00023A2
:1027600003B1012010BD70B505462C4644B32B487B
:102770000068844224D000F046FE2046FFF7D7FFD1
:1027800001281BD1201DFFF725F90120E16A8840AF
:1027900028490968084327490860E16A01EB81017B
:1027A000254A02EB8100211DFFF7EEF81B49E06A84
:1027B0000968C96A884201D300F01CFE00F030FEAF
:1027C00070BD2DE9F041054600262C46FDF7FEFCC4
:1027D00007462046FFF7ABFF01283ED114480068AA
:1027E000D8B90E49E06A0968C96A884200D301264F
:1027F000201DFFF7EFF80120E16A88400D490968C4
:1028000008430C490860E16A01EB81010A4A02EBC6
:102810008100211DFFF7B8F81FE019E03C000020FF
:1028200048000020700000206C00002064000020A0
:10283000680000204C000020E40000205800002028
:10284000980100205000002044000020700100206A
:1028500004F11801FF48FFF797F83846FDF7BDFC73
:102860003046BDE8F08110B50446206B00F065FEEF
:10287000204600F062FE10BD70B523E0FFF7F9FDC1
:10288000F548006808B9012000E000200546FFF780
:102890004DFDBDB900F0B7FDEF48C068C468201D0C
:1028A000FFF798F8ED480068401EEC490860EC48D6
:1028B0000068401EEA49086000F0B2FD2046FFF7BC
:1028C000D2FF00BFE64800680028D7D170BD00BF26
:1028D000FFF7D2FFE34800680128F9D900F08AFD2C
:1028E000F6E71FB500230093019302938022DEA137
:1028F000DF480393FFF7D8FB0446012C02D100F018
:10290000D7FC0446012C0CD1FDF760FCA01ED94970
:1029100008600120D84908600020D849086000F00C
:102920004FFD1FBD10B5FDF751FC0020D2490860D6
:1029300000F05FFD10BDD149086870470021CF4A03
:1029400010687047C5480068704770B506460C4669
:10295000CB48016818313046FFF722F8C8480068B4
:10296000001DFFF737F848B9C5480068C16A012063
:102970008840C44909688143C2480160601C06D18F
:10298000BF480168091DC048FEF7FEFF05E0BB48CF
:10299000006805192846FFF74DFD70BD2DE9F0418F
:1029A00007460D46144645F00040B5490968886160
:1029B000B348016818313846FEF7E6FFB0480068B2
:1029C000001DFFF707F848B9AD480068C16A01204B
:1029D0008840AC4909688143AA480160601C06D15F
:1029E000A7480168091DA848FEF7CEFF05E0A348E7
:1029F000006806193046FFF71DFDBDE8F0812DE99E
:102A0000F04107460C4615469D4801681831384686
:102A1000FEF7BAFF9A480068001DFEF7DBFF48B9D1
:102A200097480068C16A0120884096490968814337
:102A300094480160012D06D191480168091D924812
:102A4000FEF7A2FF05E08D48006806193046FFF743
:102A5000F1FCBDE8F08170B50646F068C46804F189
:102A60001800FEF7B7FF89480068A0B9201DFEF7DF
:102A7000B1FF0120E16A8840824909680843814921
:102A80000860E16A01EB8101764A02EB8100211DB9
:102A9000FEF77AFF04E004F118016E48FEF774FFB8
:102AA0007749E06A0968C96A884204D9012501208A
:102AB0007749086000E00025284670BD2DE9F04107
:102AC00005460F4647F000402860EC682846FEF7B0
:102AD00081FF201DFEF77EFF0120E16A88406949E1
:102AE0000968084367490860E16A01EB81015D4AB2
:102AF00002EB8100211DFEF747FF6149E06A09688A
:102B0000C96A884204D9012601206149086000E0B1
:102B100000263046BDE8F0815E49096801605749EA
:102B200009684160704770B504460D4600F06BFCC3
:102B3000524802682868401C01D1002619E0554916
:102B400020680968884204D06068904201D8012654
:102B50000FE06068101A2968884209D22868616805
:102B6000511A401A28602046FFF7D6FF002600E0E1
:102B7000012600F055FC304670BD01204449086034
:102B800070473D49096809B9012005E03F490968D6
:102B900009B9022000E000207047394909688869B6
:102BA00037490968C96AC1F10501354A126891615E
:102BB00070472DE9F04106460C4600F024FC3048F1
:102BC0000068406C30BB01202D49096881F848003D
:102BD00004B32B480068001DFEF7FCFE48B92848E6
:102BE0000068C16A01208840264909688143254858
:102BF0000160601C06D122480168091D2248FEF7C9
:102C0000C3FE05E01D48006807193846FFF712FCAF
:102C100000F0F0FB00F004FC00F0F5FB1848006841
:102C2000456C65B126B1002015490968486406E085
:102C30001349096801F14400496C491E01600020F4
:102C40000F49096881F8480000F0EAFB2846BDE812
:102C5000F081000070010020840100204400002069
:102C600040000020E400002049444C4500000000E2
:102C7000CF280008640000205000002048000020F9
:102C80003C0000204C00002098010020680000203B
:102C9000580000205C0000202DE9F04707468846D8
:102CA00015461C4600F0AFFBB148006890F848009C
:102CB00002282ED0AE49096801F14400496CB9439D
:102CC00001600120AA49096881F848000CB3A848AE
:102CD0000068001DFEF77EFE48B9A5480068C16A7D
:102CE00001208840A34909688143A2480160601C13
:102CF00006D19F480168091D9F48FEF745FE06E082
:102D00009E48006800EB04094846FFF793FB00F07B
:102D100071FB00F085FB00F076FB1DB19448006864
:102D2000406C28609248006890F84800012801D162
:102D3000002608E08E49096801F14400496C21EA47
:102D400008010160012600208949096881F84800CE
:102D500000F066FB3046BDE8F0872DE9F04781467C
:102D60000D4616461F464FF0010A4C4600F04BFB3D
:102D70000FB1606C386094F84880022084F84800F5
:102D8000052E17D2DFE806F01503070B0D00606C67
:102D9000284360640EE0606C401C60640AE0656477
:102DA00008E0B8F1020F01D0656401E04FF0000ABD
:102DB00000E000BF00BFB8F1010F1BD1201DFEF7DE
:102DC00009FE0120E16A88406A49096808436949A7
:102DD0000860E16A01EB8101694A02EB8100211D73
:102DE000FEF7D2FD6249E06A0968C96A884201D9E2
:102DF00000F000FB00F014FB5046BDE8F0872DE921
:102E0000F84F81460D4616461F46DDF828A04FF0C4
:102E1000010B4C46FDF7DAF900900FB1606C386099
:102E200094F84880022084F84800052E17D2DFE885
:102E300006F01503070B0D00606C284360640EE07C
:102E4000606C401C60640AE0656408E0B8F1020F41
:102E500001D0656401E04FF0000B00E000BF00BF4F
:102E6000B8F1010F28D147480068A0B9201DFEF72E
:102E7000B1FD0120E16A88403E49096808433D49A7
:102E80000860E16A01EB81013D4A02EB8100211DEE
:102E9000FEF77AFD04E004F118013B48FEF774FDEB
:102EA0003349E06A0968C96A884205D9BAF1000F56
:102EB00002D00120CAF800000098FDF78EF95846AC
:102EC000BDE8F88F2DE9F04105460E462C46FDF78A
:102ED0007DF9804694F84870022084F84800606CC0
:102EE000401C6064012F25D126480068A0B9201D30
:102EF000FEF770FD0120E16A88401E490968084319
:102F00001C490860E16A01EB81011D4A02EB810066
:102F1000211DFEF739FD04E004F118011A48FEF7FF
:102F200033FD1349E06A0968C96A884202D90EB1C3
:102F3000012030604046FDF750F9BDE8F08170B5E2
:102F40000446264616B90A48006800E030460646A0
:102F500000F059FA96F84800022804D1002086F8BB
:102F60004800012500E0002500F05AFA284670BD0F
:102F70003C0000204C000020980100204800002068
:102F8000E400002068000020700100202DE9F041DD
:102F900004460D4616461F464FF000086560246142
:102FA000B5420CD8F01BA169884202D34FF001084A
:102FB00011E0211DED480068FEF7F2FC0BE0BE4277
:102FC00004D2BD4202D34FF0010804E0211DE848BD
:102FD0000068FEF7E5FC4046BDE8F0812DE9FE43C0
:102FE00005460C4616461F46DDF828804FF00009BE
:102FF000E048006810B3009401960295062C15DA9B
:10300000FFF7BFFD022808D1002342466946D94890
:103010000068FEF7D2FD814610E000231A4669469B
:10302000D4480068FEF7C9FD814607E000233A4610
:103030006946D0480068FEF733FE81464846BDE841
:10304000FE832DE9F84325E0C9480068C06805689B
:10305000C7480068C068C468201DFEF7BBFC204656
:10306000616A8847E069012814D1A0694619AE4217
:1030700007D966602461211DBD480068FEF790FCF9
:1030800008E000232A46194620460093FFF7A6FFD2
:10309000804600BFB6480068006808B9012000E01B
:1030A00000200028D0D0B2480768B0480068B04976
:1030B0000860AE480760BDE8F88370B50446FFF7C6
:1030C0003AFC0546AC480068854204D2FFF7B9FFD8
:1030D0000120206001E000202060A748056028460C
:1030E00070BD70B586B04DE0039800284ADB059CA2
:1030F000606908B9012000E0002010B9201DFEF72A
:1031000069FC02A8FFF7D9FF054603980A2837D2C1
:10311000DFE800F00905072527320608262800BF4A
:1031200000BF00BF00BF0498A269811803462A4669
:103130002046FFF72BFF012810D12046616A8847FF
:10314000E06901280AD1002300930498A16942187C
:1031500019462046FFF742FF064600BF11E000BFB8
:103160000FE000BF0498A061A06941192B462A46D0
:103170002046FFF70BFF04E0204600F0DEF900E0F8
:1031800000BF00BF00231A4603A97A480068FEF773
:103190000BFE0028A8D106B070BDF8B505460E4656
:1031A00073480068C068C468201DFEF713FCE0691E
:1031B000012811D1A06941192B4632462046FFF75C
:1031C000E5FE012808D100232A461946204600932F
:1031D000FFF704FF074600BF2046616A8847F8BD35
:1031E000F8B505460C46FFF744F96846FFF765FF5A
:1031F00006460098F0B944B9B54206D8FFF796F8EC
:1032000031462846FFF7C9FF16E03CB15748006831
:10321000006808B9012000E000200446A91B2246EE
:1032200054480068FEF7B5FEFFF780F820B900F0BB
:10323000E1F801E0FFF77AF8F8BD01464C4A126860
:1032400012680AB9012200E000220A600A6822B965
:10325000474A1268D268106800E00020704708B53D
:1032600000BF6846FFF7E9FF044620460099FFF7D4
:10327000B7FFFFF736FFF4E710B500F0C4F83D489C
:10328000006890B93D48FEF76FFB3D48FEF76CFBC8
:103290003A48374908603A483449086000220C210E
:1032A0000A20FEF7E2FB3349086000F0B9F810BDD0
:1032B0001FB50024FFF7E0FF2E48006858B1002337
:1032C0000420CDE90003029382012EA12F4803932D
:1032D000FEF7EAFE0446204604B010BD2DE9F04793
:1032E00006460D4617469846DDF820900DB9002495
:1032F00010E0282000F0CFF804465CB1FFF7BCFFD7
:103300002660A561E761C4F82080C4F82490201DE0
:10331000FEF737FB2046BDE8F08701460A461068F5
:10332000704770B50446264600F06DF8706908B91C
:10333000012000E0002080F0010500F071F828462F
:1033400070BD70B50446264600F05DF8356A00F0A1
:1033500067F8284670BD70B504460D46264600F055
:1033600052F8356200F05CF870BD0000800000206B
:103370007C0000207400002078000020AC010020B8
:10338000C0010020546D7220537663005F32000844
:10339000FCF71CFF00BFFEE7001F4FF080730360C7
:1033A000001F0160001F2C4B03601438026020389E
:1033B00070472A484FF0E0214861072008617047B4
:1033C00010B52748006840F47F004FF0E021C1F8B5
:1033D000200D0846D0F8200D40F07F40C1F8200DA8
:1033E000FFF7E7FF00201F490860FCF7BDFE002043
:1033F00010BD70474FF080501B490860BFF34F8FDE
:10340000BFF36F8F704710B5FCF7E0FE15480068FA
:10341000401C14490860BFF34F8FBFF36F8F10BD7E
:1034200010B510480068401E0E4908600846006844
:1034300010B90020FCF7D1FE10BD10B5FCF7C6FE98
:10344000FEF7FCFE18B14FF08050074908600020DD
:10345000FCF7C3FE10BD0000913300083F190100C6
:1034600020ED00E08400002004ED00E0434A22F05B
:103470000700434A10600022414B5A6044F2F83280
:10348000404B5A6000221A60014644F2F8324A600A
:103490001A460A6070472DE9F04104464FF00008D3
:1034A000FEF7E7FF3848006820B9FFF7DFFF01208B
:1034B0003549086044B1083414F0070F04D004F013
:1034C0000700C0F10800044494B344F2F830844289
:1034D0002ED22B4F3846056801E02F462D686868CC
:1034E000A04202D228680028F7D1264885421FD082
:1034F000386800F10808286838606868001B1028E0
:1035000010D92E196868001B70606C6071681C48C7
:1035100000E00068026852688A42FAD302683260AA
:10352000066000BF194968680968081A17490860E9
:10353000FEF7FCFE4046BDE8F08170B50646354614
:10354000B6B1083D2C46FEF794FF61680C4800E0D8
:103550000068026852688A42FAD3026822600460F6
:103560000A4960680968084408490860FEF7DEFEF9
:1035700070BD06480068704770470000DC010020FD
:1035800090000020980000208C000020880000207F
:1035900040EA01039B0703D009E008C9121F08C0D5
:1035A000042AFAD203E011F8013B00F8013B521E55
:1035B000F9D27047D2B201E000F8012B491EFBD2CC
:1035C00070470022F6E710B5044608461146024649
:1035D0002046FFF7EFFF204610BD10B5002200E0A7
:1035E000521C835C8C5CA34201D1002BF8D1D8B271
:1035F000E1B2401A10BD30B50B4601460020202232
:10360000012409E021FA02F59D4205D303FA02F5EF
:10361000491B04FA02F52844151EA2F10102F1DC4F
:1036200030BD0000064C074D06E0E06840F00103A5
:1036300094E8070098471034AC42F6D3FCF77CFDC1
:103640003C3800085C3800080FB4054B10B503A9DE
:10365000044A029800F018F810BC5DF814FB000052
:1036600041040008A000002002E008C8121F08C1A1
:10367000002AFAD170477047002001E001C1121FF3
:10368000002AFBD1704700002DE9FF4F8BB00546A3
:103690009A460F460026C6E0252836D100246D1C28
:1036A000654AA04601212B78203B01FA03F0104225
:1036B00002D004436D1CF6E728782E2817D115F8A0
:1036C000010F44F004042A280ED06FF02F0228784E
:1036D000A0F1300109290AD808EB880102EB410169
:1036E00000EB01086D1CF2E757F8048B6D1C28787D
:1036F00069283ED005DC98B363280CD0642804D137
:1037000037E0732810D075284DD052460D99904758
:1037100006F1010686E001CF8DF8000000208DF84B
:103720000100E946012003E057F8049B4FF0FF3009
:1037300061074FF0000401D40AE0641C44450DDA2F
:103740008442FADB19F804100029F6D106E0641C63
:103750008442FCDB19F804100029F8D1264405E066
:1037600065E019F8010B52460D999047641EF8D296
:1037700058E001CF4FF00A0B002804DAC0F1000036
:103780004FF02D0102E0210504D52B218DF82410E6
:10379000012104E0E10701D02021F7E700210DF12C
:1037A000200908910AE001CF4FF00A0BF6E75946CD
:1037B000FFF721FF01F1300209F8012D0028F6D1B1
:1037C000ADEB090000F1200B600701D44FF00108B8
:1037D00000204246D84501DDA2EB0B0080460024C4
:1037E00006E009A85246005D0D999047761C641CBE
:1037F00008988442F5DB04E0302052460D9990474A
:10380000761CB8F10001A8F10108F5DC05E019F813
:10381000010B52460D999047761CBBF10001ABF1AC
:10382000010BF4DC6D1C287800287FF435AF0FB055
:103830003046BDE8F08F0000092801005C38000820
:1038400000000020A40000006836000800390008CD
:10385000A400002034490000783600080000000071
:103860000000000000000000000000000000000058
:103870000000000001020304010203040607080916
:103880000204060800A24A04000000000000000034
:103890000102030406070809000000000000000000
:1038A0000000000000000000000000000000000018
:1038B0000000000000000000000000000000000008
:1038C00000000000000000000000000000000000F8
:1038D00000000000000000000000000000000000E8
:1038E000AAAAAAAAF84300000000000000000000F5
:1038F00000000000000000000000000000000000C8
:0400000508000131BD
:00000001FF
